{
  "_format": "hh-sol-artifact-1",
  "contractName": "NFTAuction",
  "sourceName": "contracts/Auction.sol",
  "abi": [
    {
      "inputs": [],
      "stateMutability": "nonpayable",
      "type": "constructor"
    },
    {
      "anonymous": false,
      "inputs": [
        {
          "indexed": true,
          "internalType": "address",
          "name": "owner",
          "type": "address"
        },
        {
          "indexed": true,
          "internalType": "address",
          "name": "approved",
          "type": "address"
        },
        {
          "indexed": true,
          "internalType": "uint256",
          "name": "tokenId",
          "type": "uint256"
        }
      ],
      "name": "Approval",
      "type": "event"
    },
    {
      "anonymous": false,
      "inputs": [
        {
          "indexed": true,
          "internalType": "address",
          "name": "owner",
          "type": "address"
        },
        {
          "indexed": true,
          "internalType": "address",
          "name": "operator",
          "type": "address"
        },
        {
          "indexed": false,
          "internalType": "bool",
          "name": "approved",
          "type": "bool"
        }
      ],
      "name": "ApprovalForAll",
      "type": "event"
    },
    {
      "anonymous": false,
      "inputs": [
        {
          "indexed": true,
          "internalType": "string",
          "name": "msg",
          "type": "string"
        }
      ],
      "name": "AuctionClosed",
      "type": "event"
    },
    {
      "anonymous": false,
      "inputs": [
        {
          "indexed": true,
          "internalType": "string",
          "name": "_msg",
          "type": "string"
        }
      ],
      "name": "AuctionStarted",
      "type": "event"
    },
    {
      "anonymous": false,
      "inputs": [
        {
          "indexed": true,
          "internalType": "address",
          "name": "_bidder",
          "type": "address"
        },
        {
          "indexed": true,
          "internalType": "uint256",
          "name": "amount",
          "type": "uint256"
        }
      ],
      "name": "Bid",
      "type": "event"
    },
    {
      "anonymous": false,
      "inputs": [
        {
          "indexed": true,
          "internalType": "address",
          "name": "",
          "type": "address"
        },
        {
          "indexed": false,
          "internalType": "uint256",
          "name": "amount",
          "type": "uint256"
        }
      ],
      "name": "BidRedeem",
      "type": "event"
    },
    {
      "anonymous": false,
      "inputs": [
        {
          "indexed": true,
          "internalType": "address",
          "name": "previousOwner",
          "type": "address"
        },
        {
          "indexed": true,
          "internalType": "address",
          "name": "newOwner",
          "type": "address"
        }
      ],
      "name": "OwnershipTransferred",
      "type": "event"
    },
    {
      "anonymous": false,
      "inputs": [
        {
          "indexed": true,
          "internalType": "address",
          "name": "",
          "type": "address"
        },
        {
          "indexed": false,
          "internalType": "string",
          "name": "msg",
          "type": "string"
        }
      ],
      "name": "RewardClaimed",
      "type": "event"
    },
    {
      "anonymous": false,
      "inputs": [
        {
          "indexed": true,
          "internalType": "address",
          "name": "from",
          "type": "address"
        },
        {
          "indexed": true,
          "internalType": "address",
          "name": "to",
          "type": "address"
        },
        {
          "indexed": true,
          "internalType": "uint256",
          "name": "tokenId",
          "type": "uint256"
        }
      ],
      "name": "Transfer",
      "type": "event"
    },
    {
      "inputs": [
        {
          "internalType": "address",
          "name": "to",
          "type": "address"
        },
        {
          "internalType": "uint256",
          "name": "tokenId",
          "type": "uint256"
        }
      ],
      "name": "approve",
      "outputs": [],
      "stateMutability": "nonpayable",
      "type": "function"
    },
    {
      "inputs": [
        {
          "internalType": "address",
          "name": "owner",
          "type": "address"
        }
      ],
      "name": "balanceOf",
      "outputs": [
        {
          "internalType": "uint256",
          "name": "",
          "type": "uint256"
        }
      ],
      "stateMutability": "view",
      "type": "function"
    },
    {
      "inputs": [
        {
          "internalType": "uint256",
          "name": "_amount",
          "type": "uint256"
        }
      ],
      "name": "bid",
      "outputs": [],
      "stateMutability": "nonpayable",
      "type": "function"
    },
    {
      "inputs": [
        {
          "internalType": "address",
          "name": "",
          "type": "address"
        }
      ],
      "name": "bids",
      "outputs": [
        {
          "internalType": "uint256",
          "name": "",
          "type": "uint256"
        }
      ],
      "stateMutability": "view",
      "type": "function"
    },
    {
      "inputs": [],
      "name": "claimWin",
      "outputs": [],
      "stateMutability": "nonpayable",
      "type": "function"
    },
    {
      "inputs": [
        {
          "internalType": "address",
          "name": "_nft",
          "type": "address"
        },
        {
          "internalType": "uint256",
          "name": "_nftTokenId",
          "type": "uint256"
        },
        {
          "internalType": "uint256",
          "name": "_minimumBid",
          "type": "uint256"
        }
      ],
      "name": "createAuction",
      "outputs": [],
      "stateMutability": "nonpayable",
      "type": "function"
    },
    {
      "inputs": [],
      "name": "end",
      "outputs": [],
      "stateMutability": "nonpayable",
      "type": "function"
    },
    {
      "inputs": [
        {
          "internalType": "uint256",
          "name": "tokenId",
          "type": "uint256"
        }
      ],
      "name": "getApproved",
      "outputs": [
        {
          "internalType": "address",
          "name": "",
          "type": "address"
        }
      ],
      "stateMutability": "view",
      "type": "function"
    },
    {
      "inputs": [],
      "name": "getBalance",
      "outputs": [
        {
          "internalType": "uint256",
          "name": "_bal",
          "type": "uint256"
        },
        {
          "internalType": "uint256",
          "name": "_ether",
          "type": "uint256"
        }
      ],
      "stateMutability": "view",
      "type": "function"
    },
    {
      "inputs": [
        {
          "internalType": "address",
          "name": "",
          "type": "address"
        }
      ],
      "name": "hasBidded",
      "outputs": [
        {
          "internalType": "bool",
          "name": "",
          "type": "bool"
        }
      ],
      "stateMutability": "view",
      "type": "function"
    },
    {
      "inputs": [
        {
          "internalType": "address",
          "name": "owner",
          "type": "address"
        },
        {
          "internalType": "address",
          "name": "operator",
          "type": "address"
        }
      ],
      "name": "isApprovedForAll",
      "outputs": [
        {
          "internalType": "bool",
          "name": "",
          "type": "bool"
        }
      ],
      "stateMutability": "view",
      "type": "function"
    },
    {
      "inputs": [],
      "name": "name",
      "outputs": [
        {
          "internalType": "string",
          "name": "",
          "type": "string"
        }
      ],
      "stateMutability": "view",
      "type": "function"
    },
    {
      "inputs": [],
      "name": "nftAddress",
      "outputs": [
        {
          "internalType": "address",
          "name": "",
          "type": "address"
        }
      ],
      "stateMutability": "view",
      "type": "function"
    },
    {
      "inputs": [],
      "name": "nftTokenId",
      "outputs": [
        {
          "internalType": "uint256",
          "name": "",
          "type": "uint256"
        }
      ],
      "stateMutability": "view",
      "type": "function"
    },
    {
      "inputs": [],
      "name": "owner",
      "outputs": [
        {
          "internalType": "address",
          "name": "",
          "type": "address"
        }
      ],
      "stateMutability": "view",
      "type": "function"
    },
    {
      "inputs": [
        {
          "internalType": "uint256",
          "name": "tokenId",
          "type": "uint256"
        }
      ],
      "name": "ownerOf",
      "outputs": [
        {
          "internalType": "address",
          "name": "",
          "type": "address"
        }
      ],
      "stateMutability": "view",
      "type": "function"
    },
    {
      "inputs": [],
      "name": "redeemBid",
      "outputs": [],
      "stateMutability": "nonpayable",
      "type": "function"
    },
    {
      "inputs": [],
      "name": "renounceOwnership",
      "outputs": [],
      "stateMutability": "nonpayable",
      "type": "function"
    },
    {
      "inputs": [
        {
          "internalType": "address",
          "name": "from",
          "type": "address"
        },
        {
          "internalType": "address",
          "name": "to",
          "type": "address"
        },
        {
          "internalType": "uint256",
          "name": "tokenId",
          "type": "uint256"
        }
      ],
      "name": "safeTransferFrom",
      "outputs": [],
      "stateMutability": "nonpayable",
      "type": "function"
    },
    {
      "inputs": [
        {
          "internalType": "address",
          "name": "from",
          "type": "address"
        },
        {
          "internalType": "address",
          "name": "to",
          "type": "address"
        },
        {
          "internalType": "uint256",
          "name": "tokenId",
          "type": "uint256"
        },
        {
          "internalType": "bytes",
          "name": "_data",
          "type": "bytes"
        }
      ],
      "name": "safeTransferFrom",
      "outputs": [],
      "stateMutability": "nonpayable",
      "type": "function"
    },
    {
      "inputs": [
        {
          "internalType": "address",
          "name": "operator",
          "type": "address"
        },
        {
          "internalType": "bool",
          "name": "approved",
          "type": "bool"
        }
      ],
      "name": "setApprovalForAll",
      "outputs": [],
      "stateMutability": "nonpayable",
      "type": "function"
    },
    {
      "inputs": [
        {
          "internalType": "bytes4",
          "name": "interfaceId",
          "type": "bytes4"
        }
      ],
      "name": "supportsInterface",
      "outputs": [
        {
          "internalType": "bool",
          "name": "",
          "type": "bool"
        }
      ],
      "stateMutability": "view",
      "type": "function"
    },
    {
      "inputs": [],
      "name": "symbol",
      "outputs": [
        {
          "internalType": "string",
          "name": "",
          "type": "string"
        }
      ],
      "stateMutability": "view",
      "type": "function"
    },
    {
      "inputs": [
        {
          "internalType": "uint256",
          "name": "tokenId",
          "type": "uint256"
        }
      ],
      "name": "tokenURI",
      "outputs": [
        {
          "internalType": "string",
          "name": "",
          "type": "string"
        }
      ],
      "stateMutability": "view",
      "type": "function"
    },
    {
      "inputs": [
        {
          "internalType": "address",
          "name": "from",
          "type": "address"
        },
        {
          "internalType": "address",
          "name": "to",
          "type": "address"
        },
        {
          "internalType": "uint256",
          "name": "tokenId",
          "type": "uint256"
        }
      ],
      "name": "transferFrom",
      "outputs": [],
      "stateMutability": "nonpayable",
      "type": "function"
    },
    {
      "inputs": [
        {
          "internalType": "address",
          "name": "newOwner",
          "type": "address"
        }
      ],
      "name": "transferOwnership",
      "outputs": [],
      "stateMutability": "nonpayable",
      "type": "function"
    }
  ],
  "bytecode": "0x6080604052670de0b6b3a76400006011553480156200001d57600080fd5b506040518060400160405280600c81526020017f4d794e46542d546f6b656e7300000000000000000000000000000000000000008152506040518060400160405280600381526020017f554d5400000000000000000000000000000000000000000000000000000000008152508160009080519060200190620000a29291906200020f565b508060019080519060200190620000bb9291906200020f565b5050506001600781905550620000e6620000da6200014160201b60201c565b6200014960201b60201c565b735592ec0cfb4dbc12d3ab100b257153436a1f0fea600960006101000a81548173ffffffffffffffffffffffffffffffffffffffff021916908373ffffffffffffffffffffffffffffffffffffffff16021790555062000324565b600033905090565b6000600860009054906101000a900473ffffffffffffffffffffffffffffffffffffffff16905081600860006101000a81548173ffffffffffffffffffffffffffffffffffffffff021916908373ffffffffffffffffffffffffffffffffffffffff1602179055508173ffffffffffffffffffffffffffffffffffffffff168173ffffffffffffffffffffffffffffffffffffffff167f8be0079c531659141344cd1fd0a4f28419497f9722a3daafe3b4186f6b6457e060405160405180910390a35050565b8280546200021d90620002bf565b90600052602060002090601f0160209004810192826200024157600085556200028d565b82601f106200025c57805160ff19168380011785556200028d565b828001600101855582156200028d579182015b828111156200028c5782518255916020019190600101906200026f565b5b5090506200029c9190620002a0565b5090565b5b80821115620002bb576000816000905550600101620002a1565b5090565b60006002820490506001821680620002d857607f821691505b60208210811415620002ef57620002ee620002f5565b5b50919050565b7f4e487b7100000000000000000000000000000000000000000000000000000000600052602260045260246000fd5b61418c80620003346000396000f3fe608060405234801561001057600080fd5b506004361061018e5760003560e01c80637e830574116100de578063b88d4fde11610097578063e985e9c511610071578063e985e9c51461044a578063ef4cec1f1461047a578063efbe1c1c146104aa578063f2fde38b146104b45761018e565b8063b88d4fde146103f4578063c87b56dd14610410578063e18924f6146104405761018e565b80637e830574146103585780638da5cb5b1461037657806395d89b4114610394578063a22cb465146103b2578063abb94051146103ce578063b5ffd817146103ea5761018e565b806342842e0e1161014b57806362ea82db1161012557806362ea82db146102be5780636352211e146102ee57806370a082311461031e578063715018a61461034e5761018e565b806342842e0e14610268578063454a2ab3146102845780635bf8633a146102a05761018e565b806301ffc9a71461019357806306fdde03146101c3578063081812fc146101e1578063095ea7b31461021157806312065fe01461022d57806323b872dd1461024c575b600080fd5b6101ad60048036038101906101a89190612b8f565b6104d0565b6040516101ba9190613209565b60405180910390f35b6101cb6105b2565b6040516101d89190613224565b60405180910390f35b6101fb60048036038101906101f69190612be1565b610644565b604051610208919061316b565b60405180910390f35b61022b60048036038101906102269190612b04565b6106c9565b005b6102356107e1565b6040516102439291906135e1565b60405180910390f35b610266600480360381019061026191906129fe565b610898565b005b610282600480360381019061027d91906129fe565b6108f8565b005b61029e60048036038101906102999190612be1565b610918565b005b6102a8610ced565b6040516102b5919061316b565b60405180910390f35b6102d860048036038101906102d39190612999565b610d13565b6040516102e591906135c6565b60405180910390f35b61030860048036038101906103039190612be1565b610d2b565b604051610315919061316b565b60405180910390f35b61033860048036038101906103339190612999565b610ddd565b60405161034591906135c6565b60405180910390f35b610356610e95565b005b610360610f1d565b60405161036d91906135c6565b60405180910390f35b61037e610f23565b60405161038b919061316b565b60405180910390f35b61039c610f4d565b6040516103a99190613224565b60405180910390f35b6103cc60048036038101906103c79190612ac8565b610fdf565b005b6103e860048036038101906103e39190612b40565b610ff5565b005b6103f261122e565b005b61040e60048036038101906104099190612a4d565b6114ce565b005b61042a60048036038101906104259190612be1565b611530565b6040516104379190613224565b60405180910390f35b610448611682565b005b610464600480360381019061045f91906129c2565b6119b0565b6040516104719190613209565b60405180910390f35b610494600480360381019061048f9190612999565b611a44565b6040516104a19190613209565b60405180910390f35b6104b2611a64565b005b6104ce60048036038101906104c99190612999565b611c21565b005b60007f80ac58cd000000000000000000000000000000000000000000000000000000007bffffffffffffffffffffffffffffffffffffffffffffffffffffffff1916827bffffffffffffffffffffffffffffffffffffffffffffffffffffffff1916148061059b57507f5b5e139f000000000000000000000000000000000000000000000000000000007bffffffffffffffffffffffffffffffffffffffffffffffffffffffff1916827bffffffffffffffffffffffffffffffffffffffffffffffffffffffff1916145b806105ab57506105aa82611d19565b5b9050919050565b6060600080546105c19061386e565b80601f01602080910402602001604051908101604052809291908181526020018280546105ed9061386e565b801561063a5780601f1061060f5761010080835404028352916020019161063a565b820191906000526020600020905b81548152906001019060200180831161061d57829003601f168201915b5050505050905090565b600061064f82611d83565b61068e576040517f08c379a0000000000000000000000000000000000000000000000000000000008152600401610685906134a6565b60405180910390fd5b6004600083815260200190815260200160002060009054906101000a900473ffffffffffffffffffffffffffffffffffffffff169050919050565b60006106d482610d2b565b90508073ffffffffffffffffffffffffffffffffffffffff168373ffffffffffffffffffffffffffffffffffffffff161415610745576040517f08c379a000000000000000000000000000000000000000000000000000000000815260040161073c90613506565b60405180910390fd5b8073ffffffffffffffffffffffffffffffffffffffff16610764611def565b73ffffffffffffffffffffffffffffffffffffffff16148061079357506107928161078d611def565b6119b0565b5b6107d2576040517f08c379a00000000000000000000000000000000000000000000000000000000081526004016107c990613386565b60405180910390fd5b6107dc8383611df7565b505050565b600080600960009054906101000a900473ffffffffffffffffffffffffffffffffffffffff1673ffffffffffffffffffffffffffffffffffffffff166370a08231336040518263ffffffff1660e01b815260040161083f919061316b565b60206040518083038186803b15801561085757600080fd5b505afa15801561086b573d6000803e3d6000fd5b505050506040513d601f19601f8201168201806040525081019061088f9190612c0a565b91504790509091565b6108a96108a3611def565b82611eb0565b6108e8576040517f08c379a00000000000000000000000000000000000000000000000000000000081526004016108df90613546565b60405180910390fd5b6108f3838383611f8e565b505050565b610913838383604051806020016040528060008152506114ce565b505050565b6002600754141561095e576040517f08c379a0000000000000000000000000000000000000000000000000000000008152600401610955906135a6565b60405180910390fd5b600260078190555061096e610f23565b73ffffffffffffffffffffffffffffffffffffffff163373ffffffffffffffffffffffffffffffffffffffff1614156109dc576040517f08c379a00000000000000000000000000000000000000000000000000000000081526004016109d3906133e6565b60405180910390fd5b600f544210610a20576040517f08c379a0000000000000000000000000000000000000000000000000000000008152600401610a1790613346565b60405180910390fd5b60115481610a2e919061372a565b9050600d548111610a74576040517f08c379a0000000000000000000000000000000000000000000000000000000008152600401610a6b90613566565b60405180910390fd5b601360003373ffffffffffffffffffffffffffffffffffffffff1673ffffffffffffffffffffffffffffffffffffffff16815260200190815260200160002060009054906101000a900460ff1615610b01576040517f08c379a0000000000000000000000000000000000000000000000000000000008152600401610af8906132e6565b60405180910390fd5b80601260003373ffffffffffffffffffffffffffffffffffffffff1673ffffffffffffffffffffffffffffffffffffffff1681526020019081526020016000206000828254610b5091906136a3565b92505081905550600960009054906101000a900473ffffffffffffffffffffffffffffffffffffffff1673ffffffffffffffffffffffffffffffffffffffff166323b872dd3330846040518463ffffffff1660e01b8152600401610bb693929190613186565b600060405180830381600087803b158015610bd057600080fd5b505af1158015610be4573d6000803e3d6000fd5b50505050600e54811115610c3b5733600b60006101000a81548173ffffffffffffffffffffffffffffffffffffffff021916908373ffffffffffffffffffffffffffffffffffffffff16021790555080600e819055505b6014339080600181540180825580915050600190039060005260206000200160009091909190916101000a81548173ffffffffffffffffffffffffffffffffffffffff021916908373ffffffffffffffffffffffffffffffffffffffff160217905550803373ffffffffffffffffffffffffffffffffffffffff167fe684a55f31b79eca403df938249029212a5925ec6be8012e099b45bc1019e5d260405160405180910390a3600160078190555050565b600a60009054906101000a900473ffffffffffffffffffffffffffffffffffffffff1681565b60126020528060005260406000206000915090505481565b6000806002600084815260200190815260200160002060009054906101000a900473ffffffffffffffffffffffffffffffffffffffff169050600073ffffffffffffffffffffffffffffffffffffffff168173ffffffffffffffffffffffffffffffffffffffff161415610dd4576040517f08c379a0000000000000000000000000000000000000000000000000000000008152600401610dcb906133c6565b60405180910390fd5b80915050919050565b60008073ffffffffffffffffffffffffffffffffffffffff168273ffffffffffffffffffffffffffffffffffffffff161415610e4e576040517f08c379a0000000000000000000000000000000000000000000000000000000008152600401610e45906133a6565b60405180910390fd5b600360008373ffffffffffffffffffffffffffffffffffffffff1673ffffffffffffffffffffffffffffffffffffffff168152602001908152602001600020549050919050565b610e9d611def565b73ffffffffffffffffffffffffffffffffffffffff16610ebb610f23565b73ffffffffffffffffffffffffffffffffffffffff1614610f11576040517f08c379a0000000000000000000000000000000000000000000000000000000008152600401610f08906134c6565b60405180910390fd5b610f1b60006121f5565b565b600c5481565b6000600860009054906101000a900473ffffffffffffffffffffffffffffffffffffffff16905090565b606060018054610f5c9061386e565b80601f0160208091040260200160405190810160405280929190818152602001828054610f889061386e565b8015610fd55780601f10610faa57610100808354040283529160200191610fd5565b820191906000526020600020905b815481529060010190602001808311610fb857829003601f168201915b5050505050905090565b610ff1610fea611def565b83836122bb565b5050565b610ffd611def565b73ffffffffffffffffffffffffffffffffffffffff1661101b610f23565b73ffffffffffffffffffffffffffffffffffffffff1614611071576040517f08c379a0000000000000000000000000000000000000000000000000000000008152600401611068906134c6565b60405180910390fd5b82600a60006101000a81548173ffffffffffffffffffffffffffffffffffffffff021916908373ffffffffffffffffffffffffffffffffffffffff16021790555081600c81905550601154816110c7919061372a565b600d81905550601060009054906101000a900460ff161561111d576040517f08c379a000000000000000000000000000000000000000000000000000000000815260040161111490613446565b60405180910390fd5b6001601060006101000a81548160ff0219169083151502179055506203f4804261114791906136a3565b600f81905550600a60009054906101000a900473ffffffffffffffffffffffffffffffffffffffff1673ffffffffffffffffffffffffffffffffffffffff166323b872dd3330600c546040518463ffffffff1660e01b81526004016111ae93929190613186565b600060405180830381600087803b1580156111c857600080fd5b505af11580156111dc573d6000803e3d6000fd5b50505050600d54600e819055506040516111f590613141565b60405180910390207f50aa32fed87143a12f31f64ad9199a4cdc7b35635008b92f753d4c66dafdb42360405160405180910390a2505050565b60026007541415611274576040517f08c379a000000000000000000000000000000000000000000000000000000000815260040161126b906135a6565b60405180910390fd5b6002600781905550600f544210156112c1576040517f08c379a00000000000000000000000000000000000000000000000000000000081526004016112b890613586565b60405180910390fd5b601060019054906101000a900460ff16611310576040517f08c379a000000000000000000000000000000000000000000000000000000000815260040161130790613406565b60405180910390fd5b600b60009054906101000a900473ffffffffffffffffffffffffffffffffffffffff1673ffffffffffffffffffffffffffffffffffffffff163373ffffffffffffffffffffffffffffffffffffffff16146113a0576040517f08c379a0000000000000000000000000000000000000000000000000000000008152600401611397906132c6565b60405180910390fd5b6000601260003373ffffffffffffffffffffffffffffffffffffffff1673ffffffffffffffffffffffffffffffffffffffff16815260200190815260200160002081905550600a60009054906101000a900473ffffffffffffffffffffffffffffffffffffffff1673ffffffffffffffffffffffffffffffffffffffff166342842e0e3033600c546040518463ffffffff1660e01b815260040161144693929190613186565b600060405180830381600087803b15801561146057600080fd5b505af1158015611474573d6000803e3d6000fd5b505050503373ffffffffffffffffffffffffffffffffffffffff167f6734e108c2a3c91ae94a70d29d61db4cc7cf091f37f75e234f1002481b5d80596040516114bc90613426565b60405180910390a26001600781905550565b6114df6114d9611def565b83611eb0565b61151e576040517f08c379a000000000000000000000000000000000000000000000000000000000815260040161151590613546565b60405180910390fd5b61152a84848484612428565b50505050565b606061153b82611d83565b61157a576040517f08c379a000000000000000000000000000000000000000000000000000000000815260040161157190613486565b60405180910390fd5b600060066000848152602001908152602001600020805461159a9061386e565b80601f01602080910402602001604051908101604052809291908181526020018280546115c69061386e565b80156116135780601f106115e857610100808354040283529160200191611613565b820191906000526020600020905b8154815290600101906020018083116115f657829003601f168201915b505050505090506000611624612484565b905060008151141561163a57819250505061167d565b60008251111561166f57808260405160200161165792919061311d565b6040516020818303038152906040529250505061167d565b6116788461249b565b925050505b919050565b600260075414156116c8576040517f08c379a00000000000000000000000000000000000000000000000000000000081526004016116bf906135a6565b60405180910390fd5b6002600781905550600f54421015611715576040517f08c379a000000000000000000000000000000000000000000000000000000000815260040161170c90613586565b60405180910390fd5b601360003373ffffffffffffffffffffffffffffffffffffffff1673ffffffffffffffffffffffffffffffffffffffff16815260200190815260200160002060009054906101000a900460ff166117a1576040517f08c379a000000000000000000000000000000000000000000000000000000000815260040161179890613466565b60405180910390fd5b600d54601260003373ffffffffffffffffffffffffffffffffffffffff1673ffffffffffffffffffffffffffffffffffffffff16815260200190815260200160002054116117ee57600080fd5b601060019054906101000a900460ff1661183d576040517f08c379a000000000000000000000000000000000000000000000000000000000815260040161183490613266565b60405180910390fd5b6000601260003373ffffffffffffffffffffffffffffffffffffffff1673ffffffffffffffffffffffffffffffffffffffff1681526020019081526020016000205490506000601260003373ffffffffffffffffffffffffffffffffffffffff1673ffffffffffffffffffffffffffffffffffffffff16815260200190815260200160002081905550600960009054906101000a900473ffffffffffffffffffffffffffffffffffffffff1673ffffffffffffffffffffffffffffffffffffffff166323b872dd3033846040518463ffffffff1660e01b815260040161192593929190613186565b600060405180830381600087803b15801561193f57600080fd5b505af1158015611953573d6000803e3d6000fd5b505050503373ffffffffffffffffffffffffffffffffffffffff167f3a40464882b11f09e7e4f793660a763d53c11941506cf6b7a410286b36572f688260405161199d91906135c6565b60405180910390a2506001600781905550565b6000600560008473ffffffffffffffffffffffffffffffffffffffff1673ffffffffffffffffffffffffffffffffffffffff16815260200190815260200160002060008373ffffffffffffffffffffffffffffffffffffffff1673ffffffffffffffffffffffffffffffffffffffff16815260200190815260200160002060009054906101000a900460ff16905092915050565b60136020528060005260406000206000915054906101000a900460ff1681565b611a6c611def565b73ffffffffffffffffffffffffffffffffffffffff16611a8a610f23565b73ffffffffffffffffffffffffffffffffffffffff1614611ae0576040517f08c379a0000000000000000000000000000000000000000000000000000000008152600401611ad7906134c6565b60405180910390fd5b600f54421015611b25576040517f08c379a0000000000000000000000000000000000000000000000000000000008152600401611b1c90613586565b60405180910390fd5b601060009054906101000a900460ff16611b74576040517f08c379a0000000000000000000000000000000000000000000000000000000008152600401611b6b90613526565b60405180910390fd5b601060019054906101000a900460ff1615611bc4576040517f08c379a0000000000000000000000000000000000000000000000000000000008152600401611bbb90613346565b60405180910390fd5b6001601060016101000a81548160ff021916908315150217905550604051611beb90613156565b60405180910390207fae0a9185b000d27999787c49a0f6d8f427c6360d769fb30ce9a191b17d458c0460405160405180910390a2565b611c29611def565b73ffffffffffffffffffffffffffffffffffffffff16611c47610f23565b73ffffffffffffffffffffffffffffffffffffffff1614611c9d576040517f08c379a0000000000000000000000000000000000000000000000000000000008152600401611c94906134c6565b60405180910390fd5b600073ffffffffffffffffffffffffffffffffffffffff168173ffffffffffffffffffffffffffffffffffffffff161415611d0d576040517f08c379a0000000000000000000000000000000000000000000000000000000008152600401611d0490613286565b60405180910390fd5b611d16816121f5565b50565b60007f01ffc9a7000000000000000000000000000000000000000000000000000000007bffffffffffffffffffffffffffffffffffffffffffffffffffffffff1916827bffffffffffffffffffffffffffffffffffffffffffffffffffffffff1916149050919050565b60008073ffffffffffffffffffffffffffffffffffffffff166002600084815260200190815260200160002060009054906101000a900473ffffffffffffffffffffffffffffffffffffffff1673ffffffffffffffffffffffffffffffffffffffff1614159050919050565b600033905090565b816004600083815260200190815260200160002060006101000a81548173ffffffffffffffffffffffffffffffffffffffff021916908373ffffffffffffffffffffffffffffffffffffffff160217905550808273ffffffffffffffffffffffffffffffffffffffff16611e6a83610d2b565b73ffffffffffffffffffffffffffffffffffffffff167f8c5be1e5ebec7d5bd14f71427d1e84f3dd0314c0f7b2291e5b200ac8c7c3b92560405160405180910390a45050565b6000611ebb82611d83565b611efa576040517f08c379a0000000000000000000000000000000000000000000000000000000008152600401611ef190613366565b60405180910390fd5b6000611f0583610d2b565b90508073ffffffffffffffffffffffffffffffffffffffff168473ffffffffffffffffffffffffffffffffffffffff161480611f7457508373ffffffffffffffffffffffffffffffffffffffff16611f5c84610644565b73ffffffffffffffffffffffffffffffffffffffff16145b80611f855750611f8481856119b0565b5b91505092915050565b8273ffffffffffffffffffffffffffffffffffffffff16611fae82610d2b565b73ffffffffffffffffffffffffffffffffffffffff1614612004576040517f08c379a0000000000000000000000000000000000000000000000000000000008152600401611ffb906132a6565b60405180910390fd5b600073ffffffffffffffffffffffffffffffffffffffff168273ffffffffffffffffffffffffffffffffffffffff161415612074576040517f08c379a000000000000000000000000000000000000000000000000000000000815260040161206b90613306565b60405180910390fd5b61207f838383612542565b61208a600082611df7565b6001600360008573ffffffffffffffffffffffffffffffffffffffff1673ffffffffffffffffffffffffffffffffffffffff16815260200190815260200160002060008282546120da9190613784565b925050819055506001600360008473ffffffffffffffffffffffffffffffffffffffff1673ffffffffffffffffffffffffffffffffffffffff168152602001908152602001600020600082825461213191906136a3565b92505081905550816002600083815260200190815260200160002060006101000a81548173ffffffffffffffffffffffffffffffffffffffff021916908373ffffffffffffffffffffffffffffffffffffffff160217905550808273ffffffffffffffffffffffffffffffffffffffff168473ffffffffffffffffffffffffffffffffffffffff167fddf252ad1be2c89b69c2b068fc378daa952ba7f163c4a11628f55a4df523b3ef60405160405180910390a46121f0838383612547565b505050565b6000600860009054906101000a900473ffffffffffffffffffffffffffffffffffffffff16905081600860006101000a81548173ffffffffffffffffffffffffffffffffffffffff021916908373ffffffffffffffffffffffffffffffffffffffff1602179055508173ffffffffffffffffffffffffffffffffffffffff168173ffffffffffffffffffffffffffffffffffffffff167f8be0079c531659141344cd1fd0a4f28419497f9722a3daafe3b4186f6b6457e060405160405180910390a35050565b8173ffffffffffffffffffffffffffffffffffffffff168373ffffffffffffffffffffffffffffffffffffffff16141561232a576040517f08c379a000000000000000000000000000000000000000000000000000000000815260040161232190613326565b60405180910390fd5b80600560008573ffffffffffffffffffffffffffffffffffffffff1673ffffffffffffffffffffffffffffffffffffffff16815260200190815260200160002060008473ffffffffffffffffffffffffffffffffffffffff1673ffffffffffffffffffffffffffffffffffffffff16815260200190815260200160002060006101000a81548160ff0219169083151502179055508173ffffffffffffffffffffffffffffffffffffffff168373ffffffffffffffffffffffffffffffffffffffff167f17307eab39ab6107e8899845ad3d59bd9653f200f220920489ca2b5937696c318360405161241b9190613209565b60405180910390a3505050565b612433848484611f8e565b61243f8484848461254c565b61247e576040517f08c379a000000000000000000000000000000000000000000000000000000000815260040161247590613246565b60405180910390fd5b50505050565b606060405180602001604052806000815250905090565b60606124a682611d83565b6124e5576040517f08c379a00000000000000000000000000000000000000000000000000000000081526004016124dc906134e6565b60405180910390fd5b60006124ef612484565b9050600081511161250f576040518060200160405280600081525061253a565b80612519846126e3565b60405160200161252a92919061311d565b6040516020818303038152906040525b915050919050565b505050565b505050565b600061256d8473ffffffffffffffffffffffffffffffffffffffff16612890565b156126d6578373ffffffffffffffffffffffffffffffffffffffff1663150b7a02612596611def565b8786866040518563ffffffff1660e01b81526004016125b894939291906131bd565b602060405180830381600087803b1580156125d257600080fd5b505af192505050801561260357506040513d601f19601f820116820180604052508101906126009190612bb8565b60015b612686573d8060008114612633576040519150601f19603f3d011682016040523d82523d6000602084013e612638565b606091505b5060008151141561267e576040517f08c379a000000000000000000000000000000000000000000000000000000000815260040161267590613246565b60405180910390fd5b805181602001fd5b63150b7a0260e01b7bffffffffffffffffffffffffffffffffffffffffffffffffffffffff1916817bffffffffffffffffffffffffffffffffffffffffffffffffffffffff1916149150506126db565b600190505b949350505050565b6060600082141561272b576040518060400160405280600181526020017f3000000000000000000000000000000000000000000000000000000000000000815250905061288b565b600082905060005b6000821461275d578080612746906138d1565b915050600a8261275691906136f9565b9150612733565b60008167ffffffffffffffff81111561279f577f4e487b7100000000000000000000000000000000000000000000000000000000600052604160045260246000fd5b6040519080825280601f01601f1916602001820160405280156127d15781602001600182028036833780820191505090505b5090505b60008514612884576001826127ea9190613784565b9150600a856127f9919061391a565b603061280591906136a3565b60f81b818381518110612841577f4e487b7100000000000000000000000000000000000000000000000000000000600052603260045260246000fd5b60200101907effffffffffffffffffffffffffffffffffffffffffffffffffffffffffffff1916908160001a905350600a8561287d91906136f9565b94506127d5565b8093505050505b919050565b6000808273ffffffffffffffffffffffffffffffffffffffff163b119050919050565b60006128c66128c18461362f565b61360a565b9050828152602081018484840111156128de57600080fd5b6128e984828561382c565b509392505050565b600081359050612900816140fa565b92915050565b60008135905061291581614111565b92915050565b60008135905061292a81614128565b92915050565b60008151905061293f81614128565b92915050565b600082601f83011261295657600080fd5b81356129668482602086016128b3565b91505092915050565b60008135905061297e8161413f565b92915050565b6000815190506129938161413f565b92915050565b6000602082840312156129ab57600080fd5b60006129b9848285016128f1565b91505092915050565b600080604083850312156129d557600080fd5b60006129e3858286016128f1565b92505060206129f4858286016128f1565b9150509250929050565b600080600060608486031215612a1357600080fd5b6000612a21868287016128f1565b9350506020612a32868287016128f1565b9250506040612a438682870161296f565b9150509250925092565b60008060008060808587031215612a6357600080fd5b6000612a71878288016128f1565b9450506020612a82878288016128f1565b9350506040612a938782880161296f565b925050606085013567ffffffffffffffff811115612ab057600080fd5b612abc87828801612945565b91505092959194509250565b60008060408385031215612adb57600080fd5b6000612ae9858286016128f1565b9250506020612afa85828601612906565b9150509250929050565b60008060408385031215612b1757600080fd5b6000612b25858286016128f1565b9250506020612b368582860161296f565b9150509250929050565b600080600060608486031215612b5557600080fd5b6000612b63868287016128f1565b9350506020612b748682870161296f565b9250506040612b858682870161296f565b9150509250925092565b600060208284031215612ba157600080fd5b6000612baf8482850161291b565b91505092915050565b600060208284031215612bca57600080fd5b6000612bd884828501612930565b91505092915050565b600060208284031215612bf357600080fd5b6000612c018482850161296f565b91505092915050565b600060208284031215612c1c57600080fd5b6000612c2a84828501612984565b91505092915050565b612c3c816137b8565b82525050565b612c4b816137ca565b82525050565b6000612c5c82613660565b612c668185613676565b9350612c7681856020860161383b565b612c7f81613a07565b840191505092915050565b6000612c958261366b565b612c9f8185613687565b9350612caf81856020860161383b565b612cb881613a07565b840191505092915050565b6000612cce8261366b565b612cd88185613698565b9350612ce881856020860161383b565b80840191505092915050565b6000612d01603283613687565b9150612d0c82613a18565b604082019050919050565b6000612d24601583613687565b9150612d2f82613a67565b602082019050919050565b6000612d47602683613687565b9150612d5282613a90565b604082019050919050565b6000612d6a602583613687565b9150612d7582613adf565b604082019050919050565b6000612d8d600f83613698565b9150612d9882613b2e565b600f82019050919050565b6000612db0601683613687565b9150612dbb82613b57565b602082019050919050565b6000612dd3601583613687565b9150612dde82613b80565b602082019050919050565b6000612df6602483613687565b9150612e0182613ba9565b604082019050919050565b6000612e19601983613687565b9150612e2482613bf8565b602082019050919050565b6000612e3c601183613687565b9150612e4782613c21565b602082019050919050565b6000612e5f602c83613687565b9150612e6a82613c4a565b604082019050919050565b6000612e82603883613687565b9150612e8d82613c99565b604082019050919050565b6000612ea5602a83613687565b9150612eb082613ce8565b604082019050919050565b6000612ec8602983613687565b9150612ed382613d37565b604082019050919050565b6000612eeb601883613687565b9150612ef682613d86565b602082019050919050565b6000612f0e601583613687565b9150612f1982613daf565b602082019050919050565b6000612f31601483613687565b9150612f3c82613dd8565b602082019050919050565b6000612f54601783613687565b9150612f5f82613e01565b602082019050919050565b6000612f77600f83613687565b9150612f8282613e2a565b602082019050919050565b6000612f9a603183613687565b9150612fa582613e53565b604082019050919050565b6000612fbd602c83613687565b9150612fc882613ea2565b604082019050919050565b6000612fe0601683613698565b9150612feb82613ef1565b601682019050919050565b6000613003602083613687565b915061300e82613f1a565b602082019050919050565b6000613026602f83613687565b915061303182613f43565b604082019050919050565b6000613049602183613687565b915061305482613f92565b604082019050919050565b600061306c601b83613687565b915061307782613fe1565b602082019050919050565b600061308f603183613687565b915061309a8261400a565b604082019050919050565b60006130b2602683613687565b91506130bd82614059565b604082019050919050565b60006130d5601f83613687565b91506130e0826140a8565b602082019050919050565b60006130f8601f83613687565b9150613103826140d1565b602082019050919050565b61311781613822565b82525050565b60006131298285612cc3565b91506131358284612cc3565b91508190509392505050565b600061314c82612d80565b9150819050919050565b600061316182612fd3565b9150819050919050565b60006020820190506131806000830184612c33565b92915050565b600060608201905061319b6000830186612c33565b6131a86020830185612c33565b6131b5604083018461310e565b949350505050565b60006080820190506131d26000830187612c33565b6131df6020830186612c33565b6131ec604083018561310e565b81810360608301526131fe8184612c51565b905095945050505050565b600060208201905061321e6000830184612c42565b92915050565b6000602082019050818103600083015261323e8184612c8a565b905092915050565b6000602082019050818103600083015261325f81612cf4565b9050919050565b6000602082019050818103600083015261327f81612d17565b9050919050565b6000602082019050818103600083015261329f81612d3a565b9050919050565b600060208201905081810360008301526132bf81612d5d565b9050919050565b600060208201905081810360008301526132df81612da3565b9050919050565b600060208201905081810360008301526132ff81612dc6565b9050919050565b6000602082019050818103600083015261331f81612de9565b9050919050565b6000602082019050818103600083015261333f81612e0c565b9050919050565b6000602082019050818103600083015261335f81612e2f565b9050919050565b6000602082019050818103600083015261337f81612e52565b9050919050565b6000602082019050818103600083015261339f81612e75565b9050919050565b600060208201905081810360008301526133bf81612e98565b9050919050565b600060208201905081810360008301526133df81612ebb565b9050919050565b600060208201905081810360008301526133ff81612ede565b9050919050565b6000602082019050818103600083015261341f81612f01565b9050919050565b6000602082019050818103600083015261343f81612f24565b9050919050565b6000602082019050818103600083015261345f81612f47565b9050919050565b6000602082019050818103600083015261347f81612f6a565b9050919050565b6000602082019050818103600083015261349f81612f8d565b9050919050565b600060208201905081810360008301526134bf81612fb0565b9050919050565b600060208201905081810360008301526134df81612ff6565b9050919050565b600060208201905081810360008301526134ff81613019565b9050919050565b6000602082019050818103600083015261351f8161303c565b9050919050565b6000602082019050818103600083015261353f8161305f565b9050919050565b6000602082019050818103600083015261355f81613082565b9050919050565b6000602082019050818103600083015261357f816130a5565b9050919050565b6000602082019050818103600083015261359f816130c8565b9050919050565b600060208201905081810360008301526135bf816130eb565b9050919050565b60006020820190506135db600083018461310e565b92915050565b60006040820190506135f6600083018561310e565b613603602083018461310e565b9392505050565b6000613614613625565b905061362082826138a0565b919050565b6000604051905090565b600067ffffffffffffffff82111561364a576136496139d8565b5b61365382613a07565b9050602081019050919050565b600081519050919050565b600081519050919050565b600082825260208201905092915050565b600082825260208201905092915050565b600081905092915050565b60006136ae82613822565b91506136b983613822565b9250827fffffffffffffffffffffffffffffffffffffffffffffffffffffffffffffffff038211156136ee576136ed61394b565b5b828201905092915050565b600061370482613822565b915061370f83613822565b92508261371f5761371e61397a565b5b828204905092915050565b600061373582613822565b915061374083613822565b9250817fffffffffffffffffffffffffffffffffffffffffffffffffffffffffffffffff04831182151516156137795761377861394b565b5b828202905092915050565b600061378f82613822565b915061379a83613822565b9250828210156137ad576137ac61394b565b5b828203905092915050565b60006137c382613802565b9050919050565b60008115159050919050565b60007fffffffff0000000000000000000000000000000000000000000000000000000082169050919050565b600073ffffffffffffffffffffffffffffffffffffffff82169050919050565b6000819050919050565b82818337600083830152505050565b60005b8381101561385957808201518184015260208101905061383e565b83811115613868576000848401525b50505050565b6000600282049050600182168061388657607f821691505b6020821081141561389a576138996139a9565b5b50919050565b6138a982613a07565b810181811067ffffffffffffffff821117156138c8576138c76139d8565b5b80604052505050565b60006138dc82613822565b91507fffffffffffffffffffffffffffffffffffffffffffffffffffffffffffffffff82141561390f5761390e61394b565b5b600182019050919050565b600061392582613822565b915061393083613822565b9250826139405761393f61397a565b5b828206905092915050565b7f4e487b7100000000000000000000000000000000000000000000000000000000600052601160045260246000fd5b7f4e487b7100000000000000000000000000000000000000000000000000000000600052601260045260246000fd5b7f4e487b7100000000000000000000000000000000000000000000000000000000600052602260045260246000fd5b7f4e487b7100000000000000000000000000000000000000000000000000000000600052604160045260246000fd5b6000601f19601f8301169050919050565b7f4552433732313a207472616e7366657220746f206e6f6e20455243373231526560008201527f63656976657220696d706c656d656e7465720000000000000000000000000000602082015250565b7f41756374696f6e207374696c6c206f6e676f696e670000000000000000000000600082015250565b7f4f776e61626c653a206e6577206f776e657220697320746865207a65726f206160008201527f6464726573730000000000000000000000000000000000000000000000000000602082015250565b7f4552433732313a207472616e736665722066726f6d20696e636f72726563742060008201527f6f776e6572000000000000000000000000000000000000000000000000000000602082015250565b7f41756374696f6e20737461727465640000000000000000000000000000000000600082015250565b7f596f7520617265206e6f74207468652077696e6e657200000000000000000000600082015250565b7f596f752063616e206f6e6c7920626964206f6e63650000000000000000000000600082015250565b7f4552433732313a207472616e7366657220746f20746865207a65726f2061646460008201527f7265737300000000000000000000000000000000000000000000000000000000602082015250565b7f4552433732313a20617070726f766520746f2063616c6c657200000000000000600082015250565b7f41756374696f6e2068617320656e646564000000000000000000000000000000600082015250565b7f4552433732313a206f70657261746f7220717565727920666f72206e6f6e657860008201527f697374656e7420746f6b656e0000000000000000000000000000000000000000602082015250565b7f4552433732313a20617070726f76652063616c6c6572206973206e6f74206f7760008201527f6e6572206e6f7220617070726f76656420666f7220616c6c0000000000000000602082015250565b7f4552433732313a2062616c616e636520717565727920666f7220746865207a6560008201527f726f206164647265737300000000000000000000000000000000000000000000602082015250565b7f4552433732313a206f776e657220717565727920666f72206e6f6e657869737460008201527f656e7420746f6b656e0000000000000000000000000000000000000000000000602082015250565b7f796f7520617265206e6f7420616c6c6f7720746f206269640000000000000000600082015250565b7f41756374696f6e20686173206e6f7420656e6465640000000000000000000000600082015250565b7f77696e6e657220636c61696d7320726577617264000000000000000000000000600082015250565b7f41756374696f6e20616c72656164792073746172746564000000000000000000600082015250565b7f596f752068617665206e6f206269640000000000000000000000000000000000600082015250565b7f45524337323155524953746f726167653a2055524920717565727920666f722060008201527f6e6f6e6578697374656e7420746f6b656e000000000000000000000000000000602082015250565b7f4552433732313a20617070726f76656420717565727920666f72206e6f6e657860008201527f697374656e7420746f6b656e0000000000000000000000000000000000000000602082015250565b7f746869732061756374696f6e20697320636c6f73656400000000000000000000600082015250565b7f4f776e61626c653a2063616c6c6572206973206e6f7420746865206f776e6572600082015250565b7f4552433732314d657461646174613a2055524920717565727920666f72206e6f60008201527f6e6578697374656e7420746f6b656e0000000000000000000000000000000000602082015250565b7f4552433732313a20617070726f76616c20746f2063757272656e74206f776e6560008201527f7200000000000000000000000000000000000000000000000000000000000000602082015250565b7f41756374696f6e20686173206e6f742073746172746564207965740000000000600082015250565b7f4552433732313a207472616e736665722063616c6c6572206973206e6f74206f60008201527f776e6572206e6f7220617070726f766564000000000000000000000000000000602082015250565b7f42696473206d7573742062652067726561746572207468616e2073746172746960008201527f6e67204269640000000000000000000000000000000000000000000000000000602082015250565b7f546869732061756374696f6e20686173206265656e20636f6d706c6574656400600082015250565b7f5265656e7472616e637947756172643a207265656e7472616e742063616c6c00600082015250565b614103816137b8565b811461410e57600080fd5b50565b61411a816137ca565b811461412557600080fd5b50565b614131816137d6565b811461413c57600080fd5b50565b61414881613822565b811461415357600080fd5b5056fea264697066735822122000867fbed614670c85ed0a03baa729f2183008277c1b114f959cf0b1d5c5d05c64736f6c63430008040033",
  "linkReferences": {},
  "deployedLinkReferences": {}
}