{
  "_format": "hh-sol-artifact-1",
  "contractName": "NFTAuction",
  "sourceName": "contracts/Auction.sol",
  "abi": [
    {
      "inputs": [],
      "stateMutability": "nonpayable",
      "type": "constructor"
    },
    {
      "anonymous": false,
      "inputs": [
        {
          "indexed": true,
          "internalType": "address",
          "name": "owner",
          "type": "address"
        },
        {
          "indexed": true,
          "internalType": "address",
          "name": "approved",
          "type": "address"
        },
        {
          "indexed": true,
          "internalType": "uint256",
          "name": "tokenId",
          "type": "uint256"
        }
      ],
      "name": "Approval",
      "type": "event"
    },
    {
      "anonymous": false,
      "inputs": [
        {
          "indexed": true,
          "internalType": "address",
          "name": "owner",
          "type": "address"
        },
        {
          "indexed": true,
          "internalType": "address",
          "name": "operator",
          "type": "address"
        },
        {
          "indexed": false,
          "internalType": "bool",
          "name": "approved",
          "type": "bool"
        }
      ],
      "name": "ApprovalForAll",
      "type": "event"
    },
    {
      "anonymous": false,
      "inputs": [
        {
          "indexed": true,
          "internalType": "string",
          "name": "msg",
          "type": "string"
        }
      ],
      "name": "AuctionClosed",
      "type": "event"
    },
    {
      "anonymous": false,
      "inputs": [
        {
          "indexed": true,
          "internalType": "string",
          "name": "_msg",
          "type": "string"
        }
      ],
      "name": "AuctionsStatus",
      "type": "event"
    },
    {
      "anonymous": false,
      "inputs": [
        {
          "indexed": true,
          "internalType": "address",
          "name": "_bidder",
          "type": "address"
        },
        {
          "indexed": true,
          "internalType": "uint256",
          "name": "amount",
          "type": "uint256"
        }
      ],
      "name": "Bid",
      "type": "event"
    },
    {
      "anonymous": false,
      "inputs": [
        {
          "indexed": true,
          "internalType": "address",
          "name": "",
          "type": "address"
        },
        {
          "indexed": false,
          "internalType": "uint256",
          "name": "amount",
          "type": "uint256"
        }
      ],
      "name": "BidRedeem",
      "type": "event"
    },
    {
      "anonymous": false,
      "inputs": [
        {
          "indexed": true,
          "internalType": "address",
          "name": "previousOwner",
          "type": "address"
        },
        {
          "indexed": true,
          "internalType": "address",
          "name": "newOwner",
          "type": "address"
        }
      ],
      "name": "OwnershipTransferred",
      "type": "event"
    },
    {
      "anonymous": false,
      "inputs": [
        {
          "indexed": true,
          "internalType": "address",
          "name": "",
          "type": "address"
        },
        {
          "indexed": false,
          "internalType": "string",
          "name": "msg",
          "type": "string"
        }
      ],
      "name": "RewardClaimed",
      "type": "event"
    },
    {
      "anonymous": false,
      "inputs": [
        {
          "indexed": true,
          "internalType": "address",
          "name": "from",
          "type": "address"
        },
        {
          "indexed": true,
          "internalType": "address",
          "name": "to",
          "type": "address"
        },
        {
          "indexed": true,
          "internalType": "uint256",
          "name": "tokenId",
          "type": "uint256"
        }
      ],
      "name": "Transfer",
      "type": "event"
    },
    {
      "inputs": [
        {
          "internalType": "address",
          "name": "to",
          "type": "address"
        },
        {
          "internalType": "uint256",
          "name": "tokenId",
          "type": "uint256"
        }
      ],
      "name": "approve",
      "outputs": [],
      "stateMutability": "nonpayable",
      "type": "function"
    },
    {
      "inputs": [
        {
          "internalType": "address",
          "name": "owner",
          "type": "address"
        }
      ],
      "name": "balanceOf",
      "outputs": [
        {
          "internalType": "uint256",
          "name": "",
          "type": "uint256"
        }
      ],
      "stateMutability": "view",
      "type": "function"
    },
    {
      "inputs": [
        {
          "internalType": "uint256",
          "name": "_amount",
          "type": "uint256"
        }
      ],
      "name": "bid",
      "outputs": [],
      "stateMutability": "nonpayable",
      "type": "function"
    },
    {
      "inputs": [
        {
          "internalType": "address",
          "name": "",
          "type": "address"
        }
      ],
      "name": "bids",
      "outputs": [
        {
          "internalType": "uint256",
          "name": "",
          "type": "uint256"
        }
      ],
      "stateMutability": "view",
      "type": "function"
    },
    {
      "inputs": [],
      "name": "claimWin",
      "outputs": [],
      "stateMutability": "nonpayable",
      "type": "function"
    },
    {
      "inputs": [
        {
          "internalType": "address",
          "name": "_nft",
          "type": "address"
        },
        {
          "internalType": "uint256",
          "name": "_nftTokenId",
          "type": "uint256"
        },
        {
          "internalType": "uint256",
          "name": "_minimumBid",
          "type": "uint256"
        }
      ],
      "name": "createAuction",
      "outputs": [],
      "stateMutability": "nonpayable",
      "type": "function"
    },
    {
      "inputs": [],
      "name": "end",
      "outputs": [],
      "stateMutability": "nonpayable",
      "type": "function"
    },
    {
      "inputs": [
        {
          "internalType": "uint256",
          "name": "tokenId",
          "type": "uint256"
        }
      ],
      "name": "getApproved",
      "outputs": [
        {
          "internalType": "address",
          "name": "",
          "type": "address"
        }
      ],
      "stateMutability": "view",
      "type": "function"
    },
    {
      "inputs": [],
      "name": "getBalance",
      "outputs": [
        {
          "internalType": "uint256",
          "name": "_bal",
          "type": "uint256"
        },
        {
          "internalType": "uint256",
          "name": "_ether",
          "type": "uint256"
        }
      ],
      "stateMutability": "view",
      "type": "function"
    },
    {
      "inputs": [
        {
          "internalType": "address",
          "name": "",
          "type": "address"
        }
      ],
      "name": "hasBidded",
      "outputs": [
        {
          "internalType": "bool",
          "name": "",
          "type": "bool"
        }
      ],
      "stateMutability": "view",
      "type": "function"
    },
    {
      "inputs": [
        {
          "internalType": "address",
          "name": "owner",
          "type": "address"
        },
        {
          "internalType": "address",
          "name": "operator",
          "type": "address"
        }
      ],
      "name": "isApprovedForAll",
      "outputs": [
        {
          "internalType": "bool",
          "name": "",
          "type": "bool"
        }
      ],
      "stateMutability": "view",
      "type": "function"
    },
    {
      "inputs": [],
      "name": "name",
      "outputs": [
        {
          "internalType": "string",
          "name": "",
          "type": "string"
        }
      ],
      "stateMutability": "view",
      "type": "function"
    },
    {
      "inputs": [],
      "name": "nftAddress",
      "outputs": [
        {
          "internalType": "address",
          "name": "",
          "type": "address"
        }
      ],
      "stateMutability": "view",
      "type": "function"
    },
    {
      "inputs": [],
      "name": "nftTokenId",
      "outputs": [
        {
          "internalType": "uint256",
          "name": "",
          "type": "uint256"
        }
      ],
      "stateMutability": "view",
      "type": "function"
    },
    {
      "inputs": [],
      "name": "owner",
      "outputs": [
        {
          "internalType": "address",
          "name": "",
          "type": "address"
        }
      ],
      "stateMutability": "view",
      "type": "function"
    },
    {
      "inputs": [
        {
          "internalType": "uint256",
          "name": "tokenId",
          "type": "uint256"
        }
      ],
      "name": "ownerOf",
      "outputs": [
        {
          "internalType": "address",
          "name": "",
          "type": "address"
        }
      ],
      "stateMutability": "view",
      "type": "function"
    },
    {
      "inputs": [],
      "name": "redeemBid",
      "outputs": [],
      "stateMutability": "nonpayable",
      "type": "function"
    },
    {
      "inputs": [],
      "name": "renounceOwnership",
      "outputs": [],
      "stateMutability": "nonpayable",
      "type": "function"
    },
    {
      "inputs": [
        {
          "internalType": "address",
          "name": "from",
          "type": "address"
        },
        {
          "internalType": "address",
          "name": "to",
          "type": "address"
        },
        {
          "internalType": "uint256",
          "name": "tokenId",
          "type": "uint256"
        }
      ],
      "name": "safeTransferFrom",
      "outputs": [],
      "stateMutability": "nonpayable",
      "type": "function"
    },
    {
      "inputs": [
        {
          "internalType": "address",
          "name": "from",
          "type": "address"
        },
        {
          "internalType": "address",
          "name": "to",
          "type": "address"
        },
        {
          "internalType": "uint256",
          "name": "tokenId",
          "type": "uint256"
        },
        {
          "internalType": "bytes",
          "name": "_data",
          "type": "bytes"
        }
      ],
      "name": "safeTransferFrom",
      "outputs": [],
      "stateMutability": "nonpayable",
      "type": "function"
    },
    {
      "inputs": [
        {
          "internalType": "address",
          "name": "operator",
          "type": "address"
        },
        {
          "internalType": "bool",
          "name": "approved",
          "type": "bool"
        }
      ],
      "name": "setApprovalForAll",
      "outputs": [],
      "stateMutability": "nonpayable",
      "type": "function"
    },
    {
      "inputs": [],
      "name": "start",
      "outputs": [],
      "stateMutability": "nonpayable",
      "type": "function"
    },
    {
      "inputs": [
        {
          "internalType": "bytes4",
          "name": "interfaceId",
          "type": "bytes4"
        }
      ],
      "name": "supportsInterface",
      "outputs": [
        {
          "internalType": "bool",
          "name": "",
          "type": "bool"
        }
      ],
      "stateMutability": "view",
      "type": "function"
    },
    {
      "inputs": [],
      "name": "symbol",
      "outputs": [
        {
          "internalType": "string",
          "name": "",
          "type": "string"
        }
      ],
      "stateMutability": "view",
      "type": "function"
    },
    {
      "inputs": [
        {
          "internalType": "uint256",
          "name": "tokenId",
          "type": "uint256"
        }
      ],
      "name": "tokenURI",
      "outputs": [
        {
          "internalType": "string",
          "name": "",
          "type": "string"
        }
      ],
      "stateMutability": "view",
      "type": "function"
    },
    {
      "inputs": [
        {
          "internalType": "address",
          "name": "from",
          "type": "address"
        },
        {
          "internalType": "address",
          "name": "to",
          "type": "address"
        },
        {
          "internalType": "uint256",
          "name": "tokenId",
          "type": "uint256"
        }
      ],
      "name": "transferFrom",
      "outputs": [],
      "stateMutability": "nonpayable",
      "type": "function"
    },
    {
      "inputs": [
        {
          "internalType": "address",
          "name": "newOwner",
          "type": "address"
        }
      ],
      "name": "transferOwnership",
      "outputs": [],
      "stateMutability": "nonpayable",
      "type": "function"
    }
  ],
  "bytecode": "0x6080604052670de0b6b3a76400006011553480156200001d57600080fd5b506040518060400160405280600c81526020017f4d794e46542d546f6b656e7300000000000000000000000000000000000000008152506040518060400160405280600381526020017f554d5400000000000000000000000000000000000000000000000000000000008152508160009080519060200190620000a29291906200020f565b508060019080519060200190620000bb9291906200020f565b5050506001600781905550620000e6620000da6200014160201b60201c565b6200014960201b60201c565b735592ec0cfb4dbc12d3ab100b257153436a1f0fea600960006101000a81548173ffffffffffffffffffffffffffffffffffffffff021916908373ffffffffffffffffffffffffffffffffffffffff16021790555062000324565b600033905090565b6000600860009054906101000a900473ffffffffffffffffffffffffffffffffffffffff16905081600860006101000a81548173ffffffffffffffffffffffffffffffffffffffff021916908373ffffffffffffffffffffffffffffffffffffffff1602179055508173ffffffffffffffffffffffffffffffffffffffff168173ffffffffffffffffffffffffffffffffffffffff167f8be0079c531659141344cd1fd0a4f28419497f9722a3daafe3b4186f6b6457e060405160405180910390a35050565b8280546200021d90620002bf565b90600052602060002090601f0160209004810192826200024157600085556200028d565b82601f106200025c57805160ff19168380011785556200028d565b828001600101855582156200028d579182015b828111156200028c5782518255916020019190600101906200026f565b5b5090506200029c9190620002a0565b5090565b5b80821115620002bb576000816000905550600101620002a1565b5090565b60006002820490506001821680620002d857607f821691505b60208210811415620002ef57620002ee620002f5565b5b50919050565b7f4e487b7100000000000000000000000000000000000000000000000000000000600052602260045260246000fd5b61432080620003346000396000f3fe608060405234801561001057600080fd5b50600436106101a95760003560e01c80637e830574116100f9578063be9a655511610097578063e985e9c511610071578063e985e9c51461046f578063ef4cec1f1461049f578063efbe1c1c146104cf578063f2fde38b146104d9576101a9565b8063be9a65551461042b578063c87b56dd14610435578063e18924f614610465576101a9565b8063a22cb465116100d3578063a22cb465146103cd578063abb94051146103e9578063b5ffd81714610405578063b88d4fde1461040f576101a9565b80637e830574146103735780638da5cb5b1461039157806395d89b41146103af576101a9565b806342842e0e1161016657806362ea82db1161014057806362ea82db146102d95780636352211e1461030957806370a0823114610339578063715018a614610369576101a9565b806342842e0e14610283578063454a2ab31461029f5780635bf8633a146102bb576101a9565b806301ffc9a7146101ae57806306fdde03146101de578063081812fc146101fc578063095ea7b31461022c57806312065fe01461024857806323b872dd14610267575b600080fd5b6101c860048036038101906101c39190612cc2565b6104f5565b6040516101d59190613374565b60405180910390f35b6101e66105d7565b6040516101f3919061338f565b60405180910390f35b61021660048036038101906102119190612d14565b610669565b60405161022391906132d6565b60405180910390f35b61024660048036038101906102419190612c37565b6106ee565b005b610250610806565b60405161025e92919061374c565b60405180910390f35b610281600480360381019061027c9190612b31565b6108bd565b005b61029d60048036038101906102989190612b31565b61091d565b005b6102b960048036038101906102b49190612d14565b61093d565b005b6102c3610d12565b6040516102d091906132d6565b60405180910390f35b6102f360048036038101906102ee9190612acc565b610d38565b6040516103009190613731565b60405180910390f35b610323600480360381019061031e9190612d14565b610d50565b60405161033091906132d6565b60405180910390f35b610353600480360381019061034e9190612acc565b610e02565b6040516103609190613731565b60405180910390f35b610371610eba565b005b61037b610f42565b6040516103889190613731565b60405180910390f35b610399610f48565b6040516103a691906132d6565b60405180910390f35b6103b7610f72565b6040516103c4919061338f565b60405180910390f35b6103e760048036038101906103e29190612bfb565b611004565b005b61040360048036038101906103fe9190612c73565b61101a565b005b61040d61121a565b005b61042960048036038101906104249190612b80565b6114ba565b005b61043361151c565b005b61044f600480360381019061044a9190612d14565b611663565b60405161045c919061338f565b60405180910390f35b61046d6117b5565b005b61048960048036038101906104849190612af5565b611ae3565b6040516104969190613374565b60405180910390f35b6104b960048036038101906104b49190612acc565b611b77565b6040516104c69190613374565b60405180910390f35b6104d7611b97565b005b6104f360048036038101906104ee9190612acc565b611d54565b005b60007f80ac58cd000000000000000000000000000000000000000000000000000000007bffffffffffffffffffffffffffffffffffffffffffffffffffffffff1916827bffffffffffffffffffffffffffffffffffffffffffffffffffffffff191614806105c057507f5b5e139f000000000000000000000000000000000000000000000000000000007bffffffffffffffffffffffffffffffffffffffffffffffffffffffff1916827bffffffffffffffffffffffffffffffffffffffffffffffffffffffff1916145b806105d057506105cf82611e4c565b5b9050919050565b6060600080546105e6906139d9565b80601f0160208091040260200160405190810160405280929190818152602001828054610612906139d9565b801561065f5780601f106106345761010080835404028352916020019161065f565b820191906000526020600020905b81548152906001019060200180831161064257829003601f168201915b5050505050905090565b600061067482611eb6565b6106b3576040517f08c379a00000000000000000000000000000000000000000000000000000000081526004016106aa90613611565b60405180910390fd5b6004600083815260200190815260200160002060009054906101000a900473ffffffffffffffffffffffffffffffffffffffff169050919050565b60006106f982610d50565b90508073ffffffffffffffffffffffffffffffffffffffff168373ffffffffffffffffffffffffffffffffffffffff16141561076a576040517f08c379a000000000000000000000000000000000000000000000000000000000815260040161076190613671565b60405180910390fd5b8073ffffffffffffffffffffffffffffffffffffffff16610789611f22565b73ffffffffffffffffffffffffffffffffffffffff1614806107b857506107b7816107b2611f22565b611ae3565b5b6107f7576040517f08c379a00000000000000000000000000000000000000000000000000000000081526004016107ee906134f1565b60405180910390fd5b6108018383611f2a565b505050565b600080600960009054906101000a900473ffffffffffffffffffffffffffffffffffffffff1673ffffffffffffffffffffffffffffffffffffffff166370a08231336040518263ffffffff1660e01b815260040161086491906132d6565b60206040518083038186803b15801561087c57600080fd5b505afa158015610890573d6000803e3d6000fd5b505050506040513d601f19601f820116820180604052508101906108b49190612d3d565b91504790509091565b6108ce6108c8611f22565b82611fe3565b61090d576040517f08c379a0000000000000000000000000000000000000000000000000000000008152600401610904906136b1565b60405180910390fd5b6109188383836120c1565b505050565b610938838383604051806020016040528060008152506114ba565b505050565b60026007541415610983576040517f08c379a000000000000000000000000000000000000000000000000000000000815260040161097a90613711565b60405180910390fd5b6002600781905550610993610f48565b73ffffffffffffffffffffffffffffffffffffffff163373ffffffffffffffffffffffffffffffffffffffff161415610a01576040517f08c379a00000000000000000000000000000000000000000000000000000000081526004016109f890613551565b60405180910390fd5b600f544210610a45576040517f08c379a0000000000000000000000000000000000000000000000000000000008152600401610a3c906134b1565b60405180910390fd5b60115481610a539190613895565b9050600d548111610a99576040517f08c379a0000000000000000000000000000000000000000000000000000000008152600401610a90906136d1565b60405180910390fd5b601360003373ffffffffffffffffffffffffffffffffffffffff1673ffffffffffffffffffffffffffffffffffffffff16815260200190815260200160002060009054906101000a900460ff1615610b26576040517f08c379a0000000000000000000000000000000000000000000000000000000008152600401610b1d90613451565b60405180910390fd5b80601260003373ffffffffffffffffffffffffffffffffffffffff1673ffffffffffffffffffffffffffffffffffffffff1681526020019081526020016000206000828254610b75919061380e565b92505081905550600960009054906101000a900473ffffffffffffffffffffffffffffffffffffffff1673ffffffffffffffffffffffffffffffffffffffff166323b872dd3330846040518463ffffffff1660e01b8152600401610bdb939291906132f1565b600060405180830381600087803b158015610bf557600080fd5b505af1158015610c09573d6000803e3d6000fd5b50505050600e54811115610c605733600b60006101000a81548173ffffffffffffffffffffffffffffffffffffffff021916908373ffffffffffffffffffffffffffffffffffffffff16021790555080600e819055505b6014339080600181540180825580915050600190039060005260206000200160009091909190916101000a81548173ffffffffffffffffffffffffffffffffffffffff021916908373ffffffffffffffffffffffffffffffffffffffff160217905550803373ffffffffffffffffffffffffffffffffffffffff167fe684a55f31b79eca403df938249029212a5925ec6be8012e099b45bc1019e5d260405160405180910390a3600160078190555050565b600a60009054906101000a900473ffffffffffffffffffffffffffffffffffffffff1681565b60126020528060005260406000206000915090505481565b6000806002600084815260200190815260200160002060009054906101000a900473ffffffffffffffffffffffffffffffffffffffff169050600073ffffffffffffffffffffffffffffffffffffffff168173ffffffffffffffffffffffffffffffffffffffff161415610df9576040517f08c379a0000000000000000000000000000000000000000000000000000000008152600401610df090613531565b60405180910390fd5b80915050919050565b60008073ffffffffffffffffffffffffffffffffffffffff168273ffffffffffffffffffffffffffffffffffffffff161415610e73576040517f08c379a0000000000000000000000000000000000000000000000000000000008152600401610e6a90613511565b60405180910390fd5b600360008373ffffffffffffffffffffffffffffffffffffffff1673ffffffffffffffffffffffffffffffffffffffff168152602001908152602001600020549050919050565b610ec2611f22565b73ffffffffffffffffffffffffffffffffffffffff16610ee0610f48565b73ffffffffffffffffffffffffffffffffffffffff1614610f36576040517f08c379a0000000000000000000000000000000000000000000000000000000008152600401610f2d90613631565b60405180910390fd5b610f406000612328565b565b600c5481565b6000600860009054906101000a900473ffffffffffffffffffffffffffffffffffffffff16905090565b606060018054610f81906139d9565b80601f0160208091040260200160405190810160405280929190818152602001828054610fad906139d9565b8015610ffa5780601f10610fcf57610100808354040283529160200191610ffa565b820191906000526020600020905b815481529060010190602001808311610fdd57829003601f168201915b5050505050905090565b61101661100f611f22565b83836123ee565b5050565b611022611f22565b73ffffffffffffffffffffffffffffffffffffffff16611040610f48565b73ffffffffffffffffffffffffffffffffffffffff1614611096576040517f08c379a000000000000000000000000000000000000000000000000000000000815260040161108d90613631565b60405180910390fd5b82600a60006101000a81548173ffffffffffffffffffffffffffffffffffffffff021916908373ffffffffffffffffffffffffffffffffffffffff16021790555081600c81905550601154816110ec9190613895565b600d81905550601060009054906101000a900460ff1615611142576040517f08c379a0000000000000000000000000000000000000000000000000000000008152600401611139906135b1565b60405180910390fd5b600a60009054906101000a900473ffffffffffffffffffffffffffffffffffffffff1673ffffffffffffffffffffffffffffffffffffffff166323b872dd3330600c546040518463ffffffff1660e01b81526004016111a3939291906132f1565b600060405180830381600087803b1580156111bd57600080fd5b505af11580156111d1573d6000803e3d6000fd5b505050506040516111e1906132c1565b60405180910390207f103a14511a46d62b2fc2babece8a11883dec326b6a4418d438df4fd64a6437ce60405160405180910390a2505050565b60026007541415611260576040517f08c379a000000000000000000000000000000000000000000000000000000000815260040161125790613711565b60405180910390fd5b6002600781905550600f544210156112ad576040517f08c379a00000000000000000000000000000000000000000000000000000000081526004016112a4906136f1565b60405180910390fd5b601060019054906101000a900460ff166112fc576040517f08c379a00000000000000000000000000000000000000000000000000000000081526004016112f390613571565b60405180910390fd5b600b60009054906101000a900473ffffffffffffffffffffffffffffffffffffffff1673ffffffffffffffffffffffffffffffffffffffff163373ffffffffffffffffffffffffffffffffffffffff161461138c576040517f08c379a000000000000000000000000000000000000000000000000000000000815260040161138390613431565b60405180910390fd5b6000601260003373ffffffffffffffffffffffffffffffffffffffff1673ffffffffffffffffffffffffffffffffffffffff16815260200190815260200160002081905550600a60009054906101000a900473ffffffffffffffffffffffffffffffffffffffff1673ffffffffffffffffffffffffffffffffffffffff166342842e0e3033600c546040518463ffffffff1660e01b8152600401611432939291906132f1565b600060405180830381600087803b15801561144c57600080fd5b505af1158015611460573d6000803e3d6000fd5b505050503373ffffffffffffffffffffffffffffffffffffffff167f6734e108c2a3c91ae94a70d29d61db4cc7cf091f37f75e234f1002481b5d80596040516114a890613591565b60405180910390a26001600781905550565b6114cb6114c5611f22565b83611fe3565b61150a576040517f08c379a0000000000000000000000000000000000000000000000000000000008152600401611501906136b1565b60405180910390fd5b6115168484848461255b565b50505050565b611524611f22565b73ffffffffffffffffffffffffffffffffffffffff16611542610f48565b73ffffffffffffffffffffffffffffffffffffffff1614611598576040517f08c379a000000000000000000000000000000000000000000000000000000000815260040161158f90613631565b60405180910390fd5b601060009054906101000a900460ff16156115e8576040517f08c379a00000000000000000000000000000000000000000000000000000000081526004016115df906135b1565b60405180910390fd5b6001601060006101000a81548160ff0219169083151502179055506201518042611612919061380e565b600f81905550600d54600e8190555060405161162d90613297565b60405180910390207f103a14511a46d62b2fc2babece8a11883dec326b6a4418d438df4fd64a6437ce60405160405180910390a2565b606061166e82611eb6565b6116ad576040517f08c379a00000000000000000000000000000000000000000000000000000000081526004016116a4906135f1565b60405180910390fd5b60006006600084815260200190815260200160002080546116cd906139d9565b80601f01602080910402602001604051908101604052809291908181526020018280546116f9906139d9565b80156117465780601f1061171b57610100808354040283529160200191611746565b820191906000526020600020905b81548152906001019060200180831161172957829003601f168201915b5050505050905060006117576125b7565b905060008151141561176d5781925050506117b0565b6000825111156117a257808260405160200161178a929190613273565b604051602081830303815290604052925050506117b0565b6117ab846125ce565b925050505b919050565b600260075414156117fb576040517f08c379a00000000000000000000000000000000000000000000000000000000081526004016117f290613711565b60405180910390fd5b6002600781905550600f54421015611848576040517f08c379a000000000000000000000000000000000000000000000000000000000815260040161183f906136f1565b60405180910390fd5b601360003373ffffffffffffffffffffffffffffffffffffffff1673ffffffffffffffffffffffffffffffffffffffff16815260200190815260200160002060009054906101000a900460ff166118d4576040517f08c379a00000000000000000000000000000000000000000000000000000000081526004016118cb906135d1565b60405180910390fd5b600d54601260003373ffffffffffffffffffffffffffffffffffffffff1673ffffffffffffffffffffffffffffffffffffffff168152602001908152602001600020541161192157600080fd5b601060019054906101000a900460ff16611970576040517f08c379a0000000000000000000000000000000000000000000000000000000008152600401611967906133d1565b60405180910390fd5b6000601260003373ffffffffffffffffffffffffffffffffffffffff1673ffffffffffffffffffffffffffffffffffffffff1681526020019081526020016000205490506000601260003373ffffffffffffffffffffffffffffffffffffffff1673ffffffffffffffffffffffffffffffffffffffff16815260200190815260200160002081905550600960009054906101000a900473ffffffffffffffffffffffffffffffffffffffff1673ffffffffffffffffffffffffffffffffffffffff166323b872dd3033846040518463ffffffff1660e01b8152600401611a58939291906132f1565b600060405180830381600087803b158015611a7257600080fd5b505af1158015611a86573d6000803e3d6000fd5b505050503373ffffffffffffffffffffffffffffffffffffffff167f3a40464882b11f09e7e4f793660a763d53c11941506cf6b7a410286b36572f6882604051611ad09190613731565b60405180910390a2506001600781905550565b6000600560008473ffffffffffffffffffffffffffffffffffffffff1673ffffffffffffffffffffffffffffffffffffffff16815260200190815260200160002060008373ffffffffffffffffffffffffffffffffffffffff1673ffffffffffffffffffffffffffffffffffffffff16815260200190815260200160002060009054906101000a900460ff16905092915050565b60136020528060005260406000206000915054906101000a900460ff1681565b611b9f611f22565b73ffffffffffffffffffffffffffffffffffffffff16611bbd610f48565b73ffffffffffffffffffffffffffffffffffffffff1614611c13576040517f08c379a0000000000000000000000000000000000000000000000000000000008152600401611c0a90613631565b60405180910390fd5b600f54421015611c58576040517f08c379a0000000000000000000000000000000000000000000000000000000008152600401611c4f906136f1565b60405180910390fd5b601060009054906101000a900460ff16611ca7576040517f08c379a0000000000000000000000000000000000000000000000000000000008152600401611c9e90613691565b60405180910390fd5b601060019054906101000a900460ff1615611cf7576040517f08c379a0000000000000000000000000000000000000000000000000000000008152600401611cee906134b1565b60405180910390fd5b6001601060016101000a81548160ff021916908315150217905550604051611d1e906132ac565b60405180910390207fae0a9185b000d27999787c49a0f6d8f427c6360d769fb30ce9a191b17d458c0460405160405180910390a2565b611d5c611f22565b73ffffffffffffffffffffffffffffffffffffffff16611d7a610f48565b73ffffffffffffffffffffffffffffffffffffffff1614611dd0576040517f08c379a0000000000000000000000000000000000000000000000000000000008152600401611dc790613631565b60405180910390fd5b600073ffffffffffffffffffffffffffffffffffffffff168173ffffffffffffffffffffffffffffffffffffffff161415611e40576040517f08c379a0000000000000000000000000000000000000000000000000000000008152600401611e37906133f1565b60405180910390fd5b611e4981612328565b50565b60007f01ffc9a7000000000000000000000000000000000000000000000000000000007bffffffffffffffffffffffffffffffffffffffffffffffffffffffff1916827bffffffffffffffffffffffffffffffffffffffffffffffffffffffff1916149050919050565b60008073ffffffffffffffffffffffffffffffffffffffff166002600084815260200190815260200160002060009054906101000a900473ffffffffffffffffffffffffffffffffffffffff1673ffffffffffffffffffffffffffffffffffffffff1614159050919050565b600033905090565b816004600083815260200190815260200160002060006101000a81548173ffffffffffffffffffffffffffffffffffffffff021916908373ffffffffffffffffffffffffffffffffffffffff160217905550808273ffffffffffffffffffffffffffffffffffffffff16611f9d83610d50565b73ffffffffffffffffffffffffffffffffffffffff167f8c5be1e5ebec7d5bd14f71427d1e84f3dd0314c0f7b2291e5b200ac8c7c3b92560405160405180910390a45050565b6000611fee82611eb6565b61202d576040517f08c379a0000000000000000000000000000000000000000000000000000000008152600401612024906134d1565b60405180910390fd5b600061203883610d50565b90508073ffffffffffffffffffffffffffffffffffffffff168473ffffffffffffffffffffffffffffffffffffffff1614806120a757508373ffffffffffffffffffffffffffffffffffffffff1661208f84610669565b73ffffffffffffffffffffffffffffffffffffffff16145b806120b857506120b78185611ae3565b5b91505092915050565b8273ffffffffffffffffffffffffffffffffffffffff166120e182610d50565b73ffffffffffffffffffffffffffffffffffffffff1614612137576040517f08c379a000000000000000000000000000000000000000000000000000000000815260040161212e90613411565b60405180910390fd5b600073ffffffffffffffffffffffffffffffffffffffff168273ffffffffffffffffffffffffffffffffffffffff1614156121a7576040517f08c379a000000000000000000000000000000000000000000000000000000000815260040161219e90613471565b60405180910390fd5b6121b2838383612675565b6121bd600082611f2a565b6001600360008573ffffffffffffffffffffffffffffffffffffffff1673ffffffffffffffffffffffffffffffffffffffff168152602001908152602001600020600082825461220d91906138ef565b925050819055506001600360008473ffffffffffffffffffffffffffffffffffffffff1673ffffffffffffffffffffffffffffffffffffffff1681526020019081526020016000206000828254612264919061380e565b92505081905550816002600083815260200190815260200160002060006101000a81548173ffffffffffffffffffffffffffffffffffffffff021916908373ffffffffffffffffffffffffffffffffffffffff160217905550808273ffffffffffffffffffffffffffffffffffffffff168473ffffffffffffffffffffffffffffffffffffffff167fddf252ad1be2c89b69c2b068fc378daa952ba7f163c4a11628f55a4df523b3ef60405160405180910390a461232383838361267a565b505050565b6000600860009054906101000a900473ffffffffffffffffffffffffffffffffffffffff16905081600860006101000a81548173ffffffffffffffffffffffffffffffffffffffff021916908373ffffffffffffffffffffffffffffffffffffffff1602179055508173ffffffffffffffffffffffffffffffffffffffff168173ffffffffffffffffffffffffffffffffffffffff167f8be0079c531659141344cd1fd0a4f28419497f9722a3daafe3b4186f6b6457e060405160405180910390a35050565b8173ffffffffffffffffffffffffffffffffffffffff168373ffffffffffffffffffffffffffffffffffffffff16141561245d576040517f08c379a000000000000000000000000000000000000000000000000000000000815260040161245490613491565b60405180910390fd5b80600560008573ffffffffffffffffffffffffffffffffffffffff1673ffffffffffffffffffffffffffffffffffffffff16815260200190815260200160002060008473ffffffffffffffffffffffffffffffffffffffff1673ffffffffffffffffffffffffffffffffffffffff16815260200190815260200160002060006101000a81548160ff0219169083151502179055508173ffffffffffffffffffffffffffffffffffffffff168373ffffffffffffffffffffffffffffffffffffffff167f17307eab39ab6107e8899845ad3d59bd9653f200f220920489ca2b5937696c318360405161254e9190613374565b60405180910390a3505050565b6125668484846120c1565b6125728484848461267f565b6125b1576040517f08c379a00000000000000000000000000000000000000000000000000000000081526004016125a8906133b1565b60405180910390fd5b50505050565b606060405180602001604052806000815250905090565b60606125d982611eb6565b612618576040517f08c379a000000000000000000000000000000000000000000000000000000000815260040161260f90613651565b60405180910390fd5b60006126226125b7565b90506000815111612642576040518060200160405280600081525061266d565b8061264c84612816565b60405160200161265d929190613273565b6040516020818303038152906040525b915050919050565b505050565b505050565b60006126a08473ffffffffffffffffffffffffffffffffffffffff166129c3565b15612809578373ffffffffffffffffffffffffffffffffffffffff1663150b7a026126c9611f22565b8786866040518563ffffffff1660e01b81526004016126eb9493929190613328565b602060405180830381600087803b15801561270557600080fd5b505af192505050801561273657506040513d601f19601f820116820180604052508101906127339190612ceb565b60015b6127b9573d8060008114612766576040519150601f19603f3d011682016040523d82523d6000602084013e61276b565b606091505b506000815114156127b1576040517f08c379a00000000000000000000000000000000000000000000000000000000081526004016127a8906133b1565b60405180910390fd5b805181602001fd5b63150b7a0260e01b7bffffffffffffffffffffffffffffffffffffffffffffffffffffffff1916817bffffffffffffffffffffffffffffffffffffffffffffffffffffffff19161491505061280e565b600190505b949350505050565b6060600082141561285e576040518060400160405280600181526020017f300000000000000000000000000000000000000000000000000000000000000081525090506129be565b600082905060005b6000821461289057808061287990613a3c565b915050600a826128899190613864565b9150612866565b60008167ffffffffffffffff8111156128d2577f4e487b7100000000000000000000000000000000000000000000000000000000600052604160045260246000fd5b6040519080825280601f01601f1916602001820160405280156129045781602001600182028036833780820191505090505b5090505b600085146129b75760018261291d91906138ef565b9150600a8561292c9190613a85565b6030612938919061380e565b60f81b818381518110612974577f4e487b7100000000000000000000000000000000000000000000000000000000600052603260045260246000fd5b60200101907effffffffffffffffffffffffffffffffffffffffffffffffffffffffffffff1916908160001a905350600a856129b09190613864565b9450612908565b8093505050505b919050565b6000808273ffffffffffffffffffffffffffffffffffffffff163b119050919050565b60006129f96129f48461379a565b613775565b905082815260208101848484011115612a1157600080fd5b612a1c848285613997565b509392505050565b600081359050612a338161428e565b92915050565b600081359050612a48816142a5565b92915050565b600081359050612a5d816142bc565b92915050565b600081519050612a72816142bc565b92915050565b600082601f830112612a8957600080fd5b8135612a998482602086016129e6565b91505092915050565b600081359050612ab1816142d3565b92915050565b600081519050612ac6816142d3565b92915050565b600060208284031215612ade57600080fd5b6000612aec84828501612a24565b91505092915050565b60008060408385031215612b0857600080fd5b6000612b1685828601612a24565b9250506020612b2785828601612a24565b9150509250929050565b600080600060608486031215612b4657600080fd5b6000612b5486828701612a24565b9350506020612b6586828701612a24565b9250506040612b7686828701612aa2565b9150509250925092565b60008060008060808587031215612b9657600080fd5b6000612ba487828801612a24565b9450506020612bb587828801612a24565b9350506040612bc687828801612aa2565b925050606085013567ffffffffffffffff811115612be357600080fd5b612bef87828801612a78565b91505092959194509250565b60008060408385031215612c0e57600080fd5b6000612c1c85828601612a24565b9250506020612c2d85828601612a39565b9150509250929050565b60008060408385031215612c4a57600080fd5b6000612c5885828601612a24565b9250506020612c6985828601612aa2565b9150509250929050565b600080600060608486031215612c8857600080fd5b6000612c9686828701612a24565b9350506020612ca786828701612aa2565b9250506040612cb886828701612aa2565b9150509250925092565b600060208284031215612cd457600080fd5b6000612ce284828501612a4e565b91505092915050565b600060208284031215612cfd57600080fd5b6000612d0b84828501612a63565b91505092915050565b600060208284031215612d2657600080fd5b6000612d3484828501612aa2565b91505092915050565b600060208284031215612d4f57600080fd5b6000612d5d84828501612ab7565b91505092915050565b612d6f81613923565b82525050565b612d7e81613935565b82525050565b6000612d8f826137cb565b612d9981856137e1565b9350612da98185602086016139a6565b612db281613b72565b840191505092915050565b6000612dc8826137d6565b612dd281856137f2565b9350612de28185602086016139a6565b612deb81613b72565b840191505092915050565b6000612e01826137d6565b612e0b8185613803565b9350612e1b8185602086016139a6565b80840191505092915050565b6000612e346032836137f2565b9150612e3f82613b83565b604082019050919050565b6000612e576015836137f2565b9150612e6282613bd2565b602082019050919050565b6000612e7a6026836137f2565b9150612e8582613bfb565b604082019050919050565b6000612e9d6025836137f2565b9150612ea882613c4a565b604082019050919050565b6000612ec0600f83613803565b9150612ecb82613c99565b600f82019050919050565b6000612ee36016836137f2565b9150612eee82613cc2565b602082019050919050565b6000612f066015836137f2565b9150612f1182613ceb565b602082019050919050565b6000612f296024836137f2565b9150612f3482613d14565b604082019050919050565b6000612f4c6019836137f2565b9150612f5782613d63565b602082019050919050565b6000612f6f6011836137f2565b9150612f7a82613d8c565b602082019050919050565b6000612f92602c836137f2565b9150612f9d82613db5565b604082019050919050565b6000612fb56038836137f2565b9150612fc082613e04565b604082019050919050565b6000612fd8602a836137f2565b9150612fe382613e53565b604082019050919050565b6000612ffb6029836137f2565b915061300682613ea2565b604082019050919050565b600061301e6018836137f2565b915061302982613ef1565b602082019050919050565b60006130416015836137f2565b915061304c82613f1a565b602082019050919050565b60006130646014836137f2565b915061306f82613f43565b602082019050919050565b60006130876017836137f2565b915061309282613f6c565b602082019050919050565b60006130aa600f836137f2565b91506130b582613f95565b602082019050919050565b60006130cd6031836137f2565b91506130d882613fbe565b604082019050919050565b60006130f0602c836137f2565b91506130fb8261400d565b604082019050919050565b6000613113601683613803565b915061311e8261405c565b601682019050919050565b60006131366020836137f2565b915061314182614085565b602082019050919050565b6000613159600f83613803565b9150613164826140ae565b600f82019050919050565b600061317c602f836137f2565b9150613187826140d7565b604082019050919050565b600061319f6021836137f2565b91506131aa82614126565b604082019050919050565b60006131c2601b836137f2565b91506131cd82614175565b602082019050919050565b60006131e56031836137f2565b91506131f08261419e565b604082019050919050565b60006132086026836137f2565b9150613213826141ed565b604082019050919050565b600061322b601f836137f2565b91506132368261423c565b602082019050919050565b600061324e601f836137f2565b915061325982614265565b602082019050919050565b61326d8161398d565b82525050565b600061327f8285612df6565b915061328b8284612df6565b91508190509392505050565b60006132a282612eb3565b9150819050919050565b60006132b782613106565b9150819050919050565b60006132cc8261314c565b9150819050919050565b60006020820190506132eb6000830184612d66565b92915050565b60006060820190506133066000830186612d66565b6133136020830185612d66565b6133206040830184613264565b949350505050565b600060808201905061333d6000830187612d66565b61334a6020830186612d66565b6133576040830185613264565b81810360608301526133698184612d84565b905095945050505050565b60006020820190506133896000830184612d75565b92915050565b600060208201905081810360008301526133a98184612dbd565b905092915050565b600060208201905081810360008301526133ca81612e27565b9050919050565b600060208201905081810360008301526133ea81612e4a565b9050919050565b6000602082019050818103600083015261340a81612e6d565b9050919050565b6000602082019050818103600083015261342a81612e90565b9050919050565b6000602082019050818103600083015261344a81612ed6565b9050919050565b6000602082019050818103600083015261346a81612ef9565b9050919050565b6000602082019050818103600083015261348a81612f1c565b9050919050565b600060208201905081810360008301526134aa81612f3f565b9050919050565b600060208201905081810360008301526134ca81612f62565b9050919050565b600060208201905081810360008301526134ea81612f85565b9050919050565b6000602082019050818103600083015261350a81612fa8565b9050919050565b6000602082019050818103600083015261352a81612fcb565b9050919050565b6000602082019050818103600083015261354a81612fee565b9050919050565b6000602082019050818103600083015261356a81613011565b9050919050565b6000602082019050818103600083015261358a81613034565b9050919050565b600060208201905081810360008301526135aa81613057565b9050919050565b600060208201905081810360008301526135ca8161307a565b9050919050565b600060208201905081810360008301526135ea8161309d565b9050919050565b6000602082019050818103600083015261360a816130c0565b9050919050565b6000602082019050818103600083015261362a816130e3565b9050919050565b6000602082019050818103600083015261364a81613129565b9050919050565b6000602082019050818103600083015261366a8161316f565b9050919050565b6000602082019050818103600083015261368a81613192565b9050919050565b600060208201905081810360008301526136aa816131b5565b9050919050565b600060208201905081810360008301526136ca816131d8565b9050919050565b600060208201905081810360008301526136ea816131fb565b9050919050565b6000602082019050818103600083015261370a8161321e565b9050919050565b6000602082019050818103600083015261372a81613241565b9050919050565b60006020820190506137466000830184613264565b92915050565b60006040820190506137616000830185613264565b61376e6020830184613264565b9392505050565b600061377f613790565b905061378b8282613a0b565b919050565b6000604051905090565b600067ffffffffffffffff8211156137b5576137b4613b43565b5b6137be82613b72565b9050602081019050919050565b600081519050919050565b600081519050919050565b600082825260208201905092915050565b600082825260208201905092915050565b600081905092915050565b60006138198261398d565b91506138248361398d565b9250827fffffffffffffffffffffffffffffffffffffffffffffffffffffffffffffffff0382111561385957613858613ab6565b5b828201905092915050565b600061386f8261398d565b915061387a8361398d565b92508261388a57613889613ae5565b5b828204905092915050565b60006138a08261398d565b91506138ab8361398d565b9250817fffffffffffffffffffffffffffffffffffffffffffffffffffffffffffffffff04831182151516156138e4576138e3613ab6565b5b828202905092915050565b60006138fa8261398d565b91506139058361398d565b92508282101561391857613917613ab6565b5b828203905092915050565b600061392e8261396d565b9050919050565b60008115159050919050565b60007fffffffff0000000000000000000000000000000000000000000000000000000082169050919050565b600073ffffffffffffffffffffffffffffffffffffffff82169050919050565b6000819050919050565b82818337600083830152505050565b60005b838110156139c45780820151818401526020810190506139a9565b838111156139d3576000848401525b50505050565b600060028204905060018216806139f157607f821691505b60208210811415613a0557613a04613b14565b5b50919050565b613a1482613b72565b810181811067ffffffffffffffff82111715613a3357613a32613b43565b5b80604052505050565b6000613a478261398d565b91507fffffffffffffffffffffffffffffffffffffffffffffffffffffffffffffffff821415613a7a57613a79613ab6565b5b600182019050919050565b6000613a908261398d565b9150613a9b8361398d565b925082613aab57613aaa613ae5565b5b828206905092915050565b7f4e487b7100000000000000000000000000000000000000000000000000000000600052601160045260246000fd5b7f4e487b7100000000000000000000000000000000000000000000000000000000600052601260045260246000fd5b7f4e487b7100000000000000000000000000000000000000000000000000000000600052602260045260246000fd5b7f4e487b7100000000000000000000000000000000000000000000000000000000600052604160045260246000fd5b6000601f19601f8301169050919050565b7f4552433732313a207472616e7366657220746f206e6f6e20455243373231526560008201527f63656976657220696d706c656d656e7465720000000000000000000000000000602082015250565b7f41756374696f6e207374696c6c206f6e676f696e670000000000000000000000600082015250565b7f4f776e61626c653a206e6577206f776e657220697320746865207a65726f206160008201527f6464726573730000000000000000000000000000000000000000000000000000602082015250565b7f4552433732313a207472616e736665722066726f6d20696e636f72726563742060008201527f6f776e6572000000000000000000000000000000000000000000000000000000602082015250565b7f41756374696f6e20737461727465640000000000000000000000000000000000600082015250565b7f596f7520617265206e6f74207468652077696e6e657200000000000000000000600082015250565b7f596f752063616e206f6e6c7920626964206f6e63650000000000000000000000600082015250565b7f4552433732313a207472616e7366657220746f20746865207a65726f2061646460008201527f7265737300000000000000000000000000000000000000000000000000000000602082015250565b7f4552433732313a20617070726f766520746f2063616c6c657200000000000000600082015250565b7f41756374696f6e2068617320656e646564000000000000000000000000000000600082015250565b7f4552433732313a206f70657261746f7220717565727920666f72206e6f6e657860008201527f697374656e7420746f6b656e0000000000000000000000000000000000000000602082015250565b7f4552433732313a20617070726f76652063616c6c6572206973206e6f74206f7760008201527f6e6572206e6f7220617070726f76656420666f7220616c6c0000000000000000602082015250565b7f4552433732313a2062616c616e636520717565727920666f7220746865207a6560008201527f726f206164647265737300000000000000000000000000000000000000000000602082015250565b7f4552433732313a206f776e657220717565727920666f72206e6f6e657869737460008201527f656e7420746f6b656e0000000000000000000000000000000000000000000000602082015250565b7f796f7520617265206e6f7420616c6c6f7720746f206269640000000000000000600082015250565b7f41756374696f6e20686173206e6f7420656e6465640000000000000000000000600082015250565b7f77696e6e657220636c61696d7320726577617264000000000000000000000000600082015250565b7f41756374696f6e20616c72656164792073746172746564000000000000000000600082015250565b7f596f752068617665206e6f206269640000000000000000000000000000000000600082015250565b7f45524337323155524953746f726167653a2055524920717565727920666f722060008201527f6e6f6e6578697374656e7420746f6b656e000000000000000000000000000000602082015250565b7f4552433732313a20617070726f76656420717565727920666f72206e6f6e657860008201527f697374656e7420746f6b656e0000000000000000000000000000000000000000602082015250565b7f746869732061756374696f6e20697320636c6f73656400000000000000000000600082015250565b7f4f776e61626c653a2063616c6c6572206973206e6f7420746865206f776e6572600082015250565b7f41756374696f6e20637265617465640000000000000000000000000000000000600082015250565b7f4552433732314d657461646174613a2055524920717565727920666f72206e6f60008201527f6e6578697374656e7420746f6b656e0000000000000000000000000000000000602082015250565b7f4552433732313a20617070726f76616c20746f2063757272656e74206f776e6560008201527f7200000000000000000000000000000000000000000000000000000000000000602082015250565b7f41756374696f6e20686173206e6f742073746172746564207965740000000000600082015250565b7f4552433732313a207472616e736665722063616c6c6572206973206e6f74206f60008201527f776e6572206e6f7220617070726f766564000000000000000000000000000000602082015250565b7f42696473206d7573742062652067726561746572207468616e2073746172746960008201527f6e67204269640000000000000000000000000000000000000000000000000000602082015250565b7f546869732061756374696f6e20686173206265656e20636f6d706c6574656400600082015250565b7f5265656e7472616e637947756172643a207265656e7472616e742063616c6c00600082015250565b61429781613923565b81146142a257600080fd5b50565b6142ae81613935565b81146142b957600080fd5b50565b6142c581613941565b81146142d057600080fd5b50565b6142dc8161398d565b81146142e757600080fd5b5056fea2646970667358221220575b790332296cf33f8c85298452cd15167f31f1cf50c626865591230e99e4dd64736f6c63430008040033",
  "linkReferences": {},
  "deployedLinkReferences": {}
}