{
  "_format": "hh-sol-artifact-1",
  "contractName": "MyNFT",
  "sourceName": "contracts/CreatNFT.sol",
  "abi": [
    {
      "inputs": [
        {
          "internalType": "address",
          "name": "marketplace",
          "type": "address"
        }
      ],
      "stateMutability": "nonpayable",
      "type": "constructor"
    },
    {
      "anonymous": false,
      "inputs": [
        {
          "indexed": true,
          "internalType": "address",
          "name": "owner",
          "type": "address"
        },
        {
          "indexed": true,
          "internalType": "address",
          "name": "approved",
          "type": "address"
        },
        {
          "indexed": true,
          "internalType": "uint256",
          "name": "tokenId",
          "type": "uint256"
        }
      ],
      "name": "Approval",
      "type": "event"
    },
    {
      "anonymous": false,
      "inputs": [
        {
          "indexed": true,
          "internalType": "address",
          "name": "owner",
          "type": "address"
        },
        {
          "indexed": true,
          "internalType": "address",
          "name": "operator",
          "type": "address"
        },
        {
          "indexed": false,
          "internalType": "bool",
          "name": "approved",
          "type": "bool"
        }
      ],
      "name": "ApprovalForAll",
      "type": "event"
    },
    {
      "anonymous": false,
      "inputs": [
        {
          "indexed": true,
          "internalType": "address",
          "name": "from",
          "type": "address"
        },
        {
          "indexed": true,
          "internalType": "address",
          "name": "to",
          "type": "address"
        },
        {
          "indexed": true,
          "internalType": "uint256",
          "name": "tokenId",
          "type": "uint256"
        }
      ],
      "name": "Transfer",
      "type": "event"
    },
    {
      "inputs": [
        {
          "internalType": "address",
          "name": "to",
          "type": "address"
        },
        {
          "internalType": "uint256",
          "name": "tokenId",
          "type": "uint256"
        }
      ],
      "name": "approve",
      "outputs": [],
      "stateMutability": "nonpayable",
      "type": "function"
    },
    {
      "inputs": [],
      "name": "auctionmarketplaceContractAddress",
      "outputs": [
        {
          "internalType": "address",
          "name": "",
          "type": "address"
        }
      ],
      "stateMutability": "view",
      "type": "function"
    },
    {
      "inputs": [
        {
          "internalType": "address",
          "name": "owner",
          "type": "address"
        }
      ],
      "name": "balanceOf",
      "outputs": [
        {
          "internalType": "uint256",
          "name": "",
          "type": "uint256"
        }
      ],
      "stateMutability": "view",
      "type": "function"
    },
    {
      "inputs": [
        {
          "internalType": "string",
          "name": "_tokenURI",
          "type": "string"
        }
      ],
      "name": "createToken",
      "outputs": [
        {
          "internalType": "uint256",
          "name": "_tokenId",
          "type": "uint256"
        }
      ],
      "stateMutability": "nonpayable",
      "type": "function"
    },
    {
      "inputs": [
        {
          "internalType": "uint256",
          "name": "tokenId",
          "type": "uint256"
        }
      ],
      "name": "getApproved",
      "outputs": [
        {
          "internalType": "address",
          "name": "",
          "type": "address"
        }
      ],
      "stateMutability": "view",
      "type": "function"
    },
    {
      "inputs": [
        {
          "internalType": "address",
          "name": "owner",
          "type": "address"
        },
        {
          "internalType": "address",
          "name": "operator",
          "type": "address"
        }
      ],
      "name": "isApprovedForAll",
      "outputs": [
        {
          "internalType": "bool",
          "name": "",
          "type": "bool"
        }
      ],
      "stateMutability": "view",
      "type": "function"
    },
    {
      "inputs": [],
      "name": "name",
      "outputs": [
        {
          "internalType": "string",
          "name": "",
          "type": "string"
        }
      ],
      "stateMutability": "view",
      "type": "function"
    },
    {
      "inputs": [
        {
          "internalType": "uint256",
          "name": "tokenId",
          "type": "uint256"
        }
      ],
      "name": "ownerOf",
      "outputs": [
        {
          "internalType": "address",
          "name": "",
          "type": "address"
        }
      ],
      "stateMutability": "view",
      "type": "function"
    },
    {
      "inputs": [
        {
          "internalType": "address",
          "name": "from",
          "type": "address"
        },
        {
          "internalType": "address",
          "name": "to",
          "type": "address"
        },
        {
          "internalType": "uint256",
          "name": "tokenId",
          "type": "uint256"
        }
      ],
      "name": "safeTransferFrom",
      "outputs": [],
      "stateMutability": "nonpayable",
      "type": "function"
    },
    {
      "inputs": [
        {
          "internalType": "address",
          "name": "from",
          "type": "address"
        },
        {
          "internalType": "address",
          "name": "to",
          "type": "address"
        },
        {
          "internalType": "uint256",
          "name": "tokenId",
          "type": "uint256"
        },
        {
          "internalType": "bytes",
          "name": "_data",
          "type": "bytes"
        }
      ],
      "name": "safeTransferFrom",
      "outputs": [],
      "stateMutability": "nonpayable",
      "type": "function"
    },
    {
      "inputs": [
        {
          "internalType": "address",
          "name": "operator",
          "type": "address"
        },
        {
          "internalType": "bool",
          "name": "approved",
          "type": "bool"
        }
      ],
      "name": "setApprovalForAll",
      "outputs": [],
      "stateMutability": "nonpayable",
      "type": "function"
    },
    {
      "inputs": [
        {
          "internalType": "bytes4",
          "name": "interfaceId",
          "type": "bytes4"
        }
      ],
      "name": "supportsInterface",
      "outputs": [
        {
          "internalType": "bool",
          "name": "",
          "type": "bool"
        }
      ],
      "stateMutability": "view",
      "type": "function"
    },
    {
      "inputs": [],
      "name": "symbol",
      "outputs": [
        {
          "internalType": "string",
          "name": "",
          "type": "string"
        }
      ],
      "stateMutability": "view",
      "type": "function"
    },
    {
      "inputs": [
        {
          "internalType": "uint256",
          "name": "tokenId",
          "type": "uint256"
        }
      ],
      "name": "tokenURI",
      "outputs": [
        {
          "internalType": "string",
          "name": "",
          "type": "string"
        }
      ],
      "stateMutability": "view",
      "type": "function"
    },
    {
      "inputs": [
        {
          "internalType": "address",
          "name": "from",
          "type": "address"
        },
        {
          "internalType": "address",
          "name": "to",
          "type": "address"
        },
        {
          "internalType": "uint256",
          "name": "tokenId",
          "type": "uint256"
        }
      ],
      "name": "transferFrom",
      "outputs": [],
      "stateMutability": "nonpayable",
      "type": "function"
    }
  ],
  "bytecode": "0x60806040523480156200001157600080fd5b5060405162002ed138038062002ed18339818101604052810190620000379190620001e6565b6040518060400160405280600c81526020017f4d794e46542d546f6b656e7300000000000000000000000000000000000000008152506040518060400160405280600381526020017f554d5400000000000000000000000000000000000000000000000000000000008152508160009080519060200190620000bb9291906200011f565b508060019080519060200190620000d49291906200011f565b50505080600860006101000a81548173ffffffffffffffffffffffffffffffffffffffff021916908373ffffffffffffffffffffffffffffffffffffffff16021790555050620002c5565b8280546200012d9062000246565b90600052602060002090601f0160209004810192826200015157600085556200019d565b82601f106200016c57805160ff19168380011785556200019d565b828001600101855582156200019d579182015b828111156200019c5782518255916020019190600101906200017f565b5b509050620001ac9190620001b0565b5090565b5b80821115620001cb576000816000905550600101620001b1565b5090565b600081519050620001e081620002ab565b92915050565b600060208284031215620001f957600080fd5b60006200020984828501620001cf565b91505092915050565b60006200021f8262000226565b9050919050565b600073ffffffffffffffffffffffffffffffffffffffff82169050919050565b600060028204905060018216806200025f57607f821691505b602082108114156200027657620002756200027c565b5b50919050565b7f4e487b7100000000000000000000000000000000000000000000000000000000600052602260045260246000fd5b620002b68162000212565b8114620002c257600080fd5b50565b612bfc80620002d56000396000f3fe608060405234801561001057600080fd5b50600436106100f55760003560e01c806345576f9411610097578063a22cb46511610066578063a22cb46514610298578063b88d4fde146102b4578063c87b56dd146102d0578063e985e9c514610300576100f5565b806345576f94146101ea5780636352211e1461021a57806370a082311461024a57806395d89b411461027a576100f5565b8063095ea7b3116100d3578063095ea7b31461017857806323b872dd1461019457806342842e0e146101b0578063450fc0b9146101cc576100f5565b806301ffc9a7146100fa57806306fdde031461012a578063081812fc14610148575b600080fd5b610114600480360381019061010f9190611c68565b610330565b60405161012191906120af565b60405180910390f35b610132610412565b60405161013f91906120ca565b60405180910390f35b610162600480360381019061015d9190611cfb565b6104a4565b60405161016f9190612048565b60405180910390f35b610192600480360381019061018d9190611c2c565b610529565b005b6101ae60048036038101906101a99190611b26565b610641565b005b6101ca60048036038101906101c59190611b26565b6106a1565b005b6101d46106c1565b6040516101e19190612048565b60405180910390f35b61020460048036038101906101ff9190611cba565b6106e7565b60405161021191906122ec565b60405180910390f35b610234600480360381019061022f9190611cfb565b610745565b6040516102419190612048565b60405180910390f35b610264600480360381019061025f9190611ac1565b6107f7565b60405161027191906122ec565b60405180910390f35b6102826108af565b60405161028f91906120ca565b60405180910390f35b6102b260048036038101906102ad9190611bf0565b610941565b005b6102ce60048036038101906102c99190611b75565b610957565b005b6102ea60048036038101906102e59190611cfb565b6109b9565b6040516102f791906120ca565b60405180910390f35b61031a60048036038101906103159190611aea565b610b0b565b60405161032791906120af565b60405180910390f35b60007f80ac58cd000000000000000000000000000000000000000000000000000000007bffffffffffffffffffffffffffffffffffffffffffffffffffffffff1916827bffffffffffffffffffffffffffffffffffffffffffffffffffffffff191614806103fb57507f5b5e139f000000000000000000000000000000000000000000000000000000007bffffffffffffffffffffffffffffffffffffffffffffffffffffffff1916827bffffffffffffffffffffffffffffffffffffffffffffffffffffffff1916145b8061040b575061040a82610b9f565b5b9050919050565b60606000805461042190612542565b80601f016020809104026020016040519081016040528092919081815260200182805461044d90612542565b801561049a5780601f1061046f5761010080835404028352916020019161049a565b820191906000526020600020905b81548152906001019060200180831161047d57829003601f168201915b5050505050905090565b60006104af82610c09565b6104ee576040517f08c379a00000000000000000000000000000000000000000000000000000000081526004016104e59061226c565b60405180910390fd5b6004600083815260200190815260200160002060009054906101000a900473ffffffffffffffffffffffffffffffffffffffff169050919050565b600061053482610745565b90508073ffffffffffffffffffffffffffffffffffffffff168373ffffffffffffffffffffffffffffffffffffffff1614156105a5576040517f08c379a000000000000000000000000000000000000000000000000000000000815260040161059c906122ac565b60405180910390fd5b8073ffffffffffffffffffffffffffffffffffffffff166105c4610c75565b73ffffffffffffffffffffffffffffffffffffffff1614806105f357506105f2816105ed610c75565b610b0b565b5b610632576040517f08c379a0000000000000000000000000000000000000000000000000000000008152600401610629906121ac565b60405180910390fd5b61063c8383610c7d565b505050565b61065261064c610c75565b82610d36565b610691576040517f08c379a0000000000000000000000000000000000000000000000000000000008152600401610688906122cc565b60405180910390fd5b61069c838383610e14565b505050565b6106bc83838360405180602001604052806000815250610957565b505050565b600860009054906101000a900473ffffffffffffffffffffffffffffffffffffffff1681565b60006106f3600761107b565b6106fd6007611091565b9050610709338261109f565b6107138183611279565b610740600860009054906101000a900473ffffffffffffffffffffffffffffffffffffffff166001610941565b919050565b6000806002600084815260200190815260200160002060009054906101000a900473ffffffffffffffffffffffffffffffffffffffff169050600073ffffffffffffffffffffffffffffffffffffffff168173ffffffffffffffffffffffffffffffffffffffff1614156107ee576040517f08c379a00000000000000000000000000000000000000000000000000000000081526004016107e5906121ec565b60405180910390fd5b80915050919050565b60008073ffffffffffffffffffffffffffffffffffffffff168273ffffffffffffffffffffffffffffffffffffffff161415610868576040517f08c379a000000000000000000000000000000000000000000000000000000000815260040161085f906121cc565b60405180910390fd5b600360008373ffffffffffffffffffffffffffffffffffffffff1673ffffffffffffffffffffffffffffffffffffffff168152602001908152602001600020549050919050565b6060600180546108be90612542565b80601f01602080910402602001604051908101604052809291908181526020018280546108ea90612542565b80156109375780601f1061090c57610100808354040283529160200191610937565b820191906000526020600020905b81548152906001019060200180831161091a57829003601f168201915b5050505050905090565b61095361094c610c75565b83836112ed565b5050565b610968610962610c75565b83610d36565b6109a7576040517f08c379a000000000000000000000000000000000000000000000000000000000815260040161099e906122cc565b60405180910390fd5b6109b38484848461145a565b50505050565b60606109c482610c09565b610a03576040517f08c379a00000000000000000000000000000000000000000000000000000000081526004016109fa9061224c565b60405180910390fd5b6000600660008481526020019081526020016000208054610a2390612542565b80601f0160208091040260200160405190810160405280929190818152602001828054610a4f90612542565b8015610a9c5780601f10610a7157610100808354040283529160200191610a9c565b820191906000526020600020905b815481529060010190602001808311610a7f57829003601f168201915b505050505090506000610aad6114b6565b9050600081511415610ac3578192505050610b06565b600082511115610af8578082604051602001610ae0929190612024565b60405160208183030381529060405292505050610b06565b610b01846114cd565b925050505b919050565b6000600560008473ffffffffffffffffffffffffffffffffffffffff1673ffffffffffffffffffffffffffffffffffffffff16815260200190815260200160002060008373ffffffffffffffffffffffffffffffffffffffff1673ffffffffffffffffffffffffffffffffffffffff16815260200190815260200160002060009054906101000a900460ff16905092915050565b60007f01ffc9a7000000000000000000000000000000000000000000000000000000007bffffffffffffffffffffffffffffffffffffffffffffffffffffffff1916827bffffffffffffffffffffffffffffffffffffffffffffffffffffffff1916149050919050565b60008073ffffffffffffffffffffffffffffffffffffffff166002600084815260200190815260200160002060009054906101000a900473ffffffffffffffffffffffffffffffffffffffff1673ffffffffffffffffffffffffffffffffffffffff1614159050919050565b600033905090565b816004600083815260200190815260200160002060006101000a81548173ffffffffffffffffffffffffffffffffffffffff021916908373ffffffffffffffffffffffffffffffffffffffff160217905550808273ffffffffffffffffffffffffffffffffffffffff16610cf083610745565b73ffffffffffffffffffffffffffffffffffffffff167f8c5be1e5ebec7d5bd14f71427d1e84f3dd0314c0f7b2291e5b200ac8c7c3b92560405160405180910390a45050565b6000610d4182610c09565b610d80576040517f08c379a0000000000000000000000000000000000000000000000000000000008152600401610d779061218c565b60405180910390fd5b6000610d8b83610745565b90508073ffffffffffffffffffffffffffffffffffffffff168473ffffffffffffffffffffffffffffffffffffffff161480610dfa57508373ffffffffffffffffffffffffffffffffffffffff16610de2846104a4565b73ffffffffffffffffffffffffffffffffffffffff16145b80610e0b5750610e0a8185610b0b565b5b91505092915050565b8273ffffffffffffffffffffffffffffffffffffffff16610e3482610745565b73ffffffffffffffffffffffffffffffffffffffff1614610e8a576040517f08c379a0000000000000000000000000000000000000000000000000000000008152600401610e819061210c565b60405180910390fd5b600073ffffffffffffffffffffffffffffffffffffffff168273ffffffffffffffffffffffffffffffffffffffff161415610efa576040517f08c379a0000000000000000000000000000000000000000000000000000000008152600401610ef19061214c565b60405180910390fd5b610f05838383611574565b610f10600082610c7d565b6001600360008573ffffffffffffffffffffffffffffffffffffffff1673ffffffffffffffffffffffffffffffffffffffff1681526020019081526020016000206000828254610f609190612458565b925050819055506001600360008473ffffffffffffffffffffffffffffffffffffffff1673ffffffffffffffffffffffffffffffffffffffff1681526020019081526020016000206000828254610fb791906123d1565b92505081905550816002600083815260200190815260200160002060006101000a81548173ffffffffffffffffffffffffffffffffffffffff021916908373ffffffffffffffffffffffffffffffffffffffff160217905550808273ffffffffffffffffffffffffffffffffffffffff168473ffffffffffffffffffffffffffffffffffffffff167fddf252ad1be2c89b69c2b068fc378daa952ba7f163c4a11628f55a4df523b3ef60405160405180910390a4611076838383611579565b505050565b6001816000016000828254019250508190555050565b600081600001549050919050565b600073ffffffffffffffffffffffffffffffffffffffff168273ffffffffffffffffffffffffffffffffffffffff16141561110f576040517f08c379a00000000000000000000000000000000000000000000000000000000081526004016111069061222c565b60405180910390fd5b61111881610c09565b15611158576040517f08c379a000000000000000000000000000000000000000000000000000000000815260040161114f9061212c565b60405180910390fd5b61116460008383611574565b6001600360008473ffffffffffffffffffffffffffffffffffffffff1673ffffffffffffffffffffffffffffffffffffffff16815260200190815260200160002060008282546111b491906123d1565b92505081905550816002600083815260200190815260200160002060006101000a81548173ffffffffffffffffffffffffffffffffffffffff021916908373ffffffffffffffffffffffffffffffffffffffff160217905550808273ffffffffffffffffffffffffffffffffffffffff16600073ffffffffffffffffffffffffffffffffffffffff167fddf252ad1be2c89b69c2b068fc378daa952ba7f163c4a11628f55a4df523b3ef60405160405180910390a461127560008383611579565b5050565b61128282610c09565b6112c1576040517f08c379a00000000000000000000000000000000000000000000000000000000081526004016112b89061220c565b60405180910390fd5b806006600084815260200190815260200160002090805190602001906112e89291906118e5565b505050565b8173ffffffffffffffffffffffffffffffffffffffff168373ffffffffffffffffffffffffffffffffffffffff16141561135c576040517f08c379a00000000000000000000000000000000000000000000000000000000081526004016113539061216c565b60405180910390fd5b80600560008573ffffffffffffffffffffffffffffffffffffffff1673ffffffffffffffffffffffffffffffffffffffff16815260200190815260200160002060008473ffffffffffffffffffffffffffffffffffffffff1673ffffffffffffffffffffffffffffffffffffffff16815260200190815260200160002060006101000a81548160ff0219169083151502179055508173ffffffffffffffffffffffffffffffffffffffff168373ffffffffffffffffffffffffffffffffffffffff167f17307eab39ab6107e8899845ad3d59bd9653f200f220920489ca2b5937696c318360405161144d91906120af565b60405180910390a3505050565b611465848484610e14565b6114718484848461157e565b6114b0576040517f08c379a00000000000000000000000000000000000000000000000000000000081526004016114a7906120ec565b60405180910390fd5b50505050565b606060405180602001604052806000815250905090565b60606114d882610c09565b611517576040517f08c379a000000000000000000000000000000000000000000000000000000000815260040161150e9061228c565b60405180910390fd5b60006115216114b6565b90506000815111611541576040518060200160405280600081525061156c565b8061154b84611715565b60405160200161155c929190612024565b6040516020818303038152906040525b915050919050565b505050565b505050565b600061159f8473ffffffffffffffffffffffffffffffffffffffff166118c2565b15611708578373ffffffffffffffffffffffffffffffffffffffff1663150b7a026115c8610c75565b8786866040518563ffffffff1660e01b81526004016115ea9493929190612063565b602060405180830381600087803b15801561160457600080fd5b505af192505050801561163557506040513d601f19601f820116820180604052508101906116329190611c91565b60015b6116b8573d8060008114611665576040519150601f19603f3d011682016040523d82523d6000602084013e61166a565b606091505b506000815114156116b0576040517f08c379a00000000000000000000000000000000000000000000000000000000081526004016116a7906120ec565b60405180910390fd5b805181602001fd5b63150b7a0260e01b7bffffffffffffffffffffffffffffffffffffffffffffffffffffffff1916817bffffffffffffffffffffffffffffffffffffffffffffffffffffffff19161491505061170d565b600190505b949350505050565b6060600082141561175d576040518060400160405280600181526020017f300000000000000000000000000000000000000000000000000000000000000081525090506118bd565b600082905060005b6000821461178f578080611778906125a5565b915050600a826117889190612427565b9150611765565b60008167ffffffffffffffff8111156117d1577f4e487b7100000000000000000000000000000000000000000000000000000000600052604160045260246000fd5b6040519080825280601f01601f1916602001820160405280156118035781602001600182028036833780820191505090505b5090505b600085146118b65760018261181c9190612458565b9150600a8561182b91906125ee565b603061183791906123d1565b60f81b818381518110611873577f4e487b7100000000000000000000000000000000000000000000000000000000600052603260045260246000fd5b60200101907effffffffffffffffffffffffffffffffffffffffffffffffffffffffffffff1916908160001a905350600a856118af9190612427565b9450611807565b8093505050505b919050565b6000808273ffffffffffffffffffffffffffffffffffffffff163b119050919050565b8280546118f190612542565b90600052602060002090601f016020900481019282611913576000855561195a565b82601f1061192c57805160ff191683800117855561195a565b8280016001018555821561195a579182015b8281111561195957825182559160200191906001019061193e565b5b509050611967919061196b565b5090565b5b8082111561198457600081600090555060010161196c565b5090565b600061199b6119968461232c565b612307565b9050828152602081018484840111156119b357600080fd5b6119be848285612500565b509392505050565b60006119d96119d48461235d565b612307565b9050828152602081018484840111156119f157600080fd5b6119fc848285612500565b509392505050565b600081359050611a1381612b6a565b92915050565b600081359050611a2881612b81565b92915050565b600081359050611a3d81612b98565b92915050565b600081519050611a5281612b98565b92915050565b600082601f830112611a6957600080fd5b8135611a79848260208601611988565b91505092915050565b600082601f830112611a9357600080fd5b8135611aa38482602086016119c6565b91505092915050565b600081359050611abb81612baf565b92915050565b600060208284031215611ad357600080fd5b6000611ae184828501611a04565b91505092915050565b60008060408385031215611afd57600080fd5b6000611b0b85828601611a04565b9250506020611b1c85828601611a04565b9150509250929050565b600080600060608486031215611b3b57600080fd5b6000611b4986828701611a04565b9350506020611b5a86828701611a04565b9250506040611b6b86828701611aac565b9150509250925092565b60008060008060808587031215611b8b57600080fd5b6000611b9987828801611a04565b9450506020611baa87828801611a04565b9350506040611bbb87828801611aac565b925050606085013567ffffffffffffffff811115611bd857600080fd5b611be487828801611a58565b91505092959194509250565b60008060408385031215611c0357600080fd5b6000611c1185828601611a04565b9250506020611c2285828601611a19565b9150509250929050565b60008060408385031215611c3f57600080fd5b6000611c4d85828601611a04565b9250506020611c5e85828601611aac565b9150509250929050565b600060208284031215611c7a57600080fd5b6000611c8884828501611a2e565b91505092915050565b600060208284031215611ca357600080fd5b6000611cb184828501611a43565b91505092915050565b600060208284031215611ccc57600080fd5b600082013567ffffffffffffffff811115611ce657600080fd5b611cf284828501611a82565b91505092915050565b600060208284031215611d0d57600080fd5b6000611d1b84828501611aac565b91505092915050565b611d2d8161248c565b82525050565b611d3c8161249e565b82525050565b6000611d4d8261238e565b611d5781856123a4565b9350611d6781856020860161250f565b611d70816126db565b840191505092915050565b6000611d8682612399565b611d9081856123b5565b9350611da081856020860161250f565b611da9816126db565b840191505092915050565b6000611dbf82612399565b611dc981856123c6565b9350611dd981856020860161250f565b80840191505092915050565b6000611df26032836123b5565b9150611dfd826126ec565b604082019050919050565b6000611e156025836123b5565b9150611e208261273b565b604082019050919050565b6000611e38601c836123b5565b9150611e438261278a565b602082019050919050565b6000611e5b6024836123b5565b9150611e66826127b3565b604082019050919050565b6000611e7e6019836123b5565b9150611e8982612802565b602082019050919050565b6000611ea1602c836123b5565b9150611eac8261282b565b604082019050919050565b6000611ec46038836123b5565b9150611ecf8261287a565b604082019050919050565b6000611ee7602a836123b5565b9150611ef2826128c9565b604082019050919050565b6000611f0a6029836123b5565b9150611f1582612918565b604082019050919050565b6000611f2d602e836123b5565b9150611f3882612967565b604082019050919050565b6000611f506020836123b5565b9150611f5b826129b6565b602082019050919050565b6000611f736031836123b5565b9150611f7e826129df565b604082019050919050565b6000611f96602c836123b5565b9150611fa182612a2e565b604082019050919050565b6000611fb9602f836123b5565b9150611fc482612a7d565b604082019050919050565b6000611fdc6021836123b5565b9150611fe782612acc565b604082019050919050565b6000611fff6031836123b5565b915061200a82612b1b565b604082019050919050565b61201e816124f6565b82525050565b60006120308285611db4565b915061203c8284611db4565b91508190509392505050565b600060208201905061205d6000830184611d24565b92915050565b60006080820190506120786000830187611d24565b6120856020830186611d24565b6120926040830185612015565b81810360608301526120a48184611d42565b905095945050505050565b60006020820190506120c46000830184611d33565b92915050565b600060208201905081810360008301526120e48184611d7b565b905092915050565b6000602082019050818103600083015261210581611de5565b9050919050565b6000602082019050818103600083015261212581611e08565b9050919050565b6000602082019050818103600083015261214581611e2b565b9050919050565b6000602082019050818103600083015261216581611e4e565b9050919050565b6000602082019050818103600083015261218581611e71565b9050919050565b600060208201905081810360008301526121a581611e94565b9050919050565b600060208201905081810360008301526121c581611eb7565b9050919050565b600060208201905081810360008301526121e581611eda565b9050919050565b6000602082019050818103600083015261220581611efd565b9050919050565b6000602082019050818103600083015261222581611f20565b9050919050565b6000602082019050818103600083015261224581611f43565b9050919050565b6000602082019050818103600083015261226581611f66565b9050919050565b6000602082019050818103600083015261228581611f89565b9050919050565b600060208201905081810360008301526122a581611fac565b9050919050565b600060208201905081810360008301526122c581611fcf565b9050919050565b600060208201905081810360008301526122e581611ff2565b9050919050565b60006020820190506123016000830184612015565b92915050565b6000612311612322565b905061231d8282612574565b919050565b6000604051905090565b600067ffffffffffffffff821115612347576123466126ac565b5b612350826126db565b9050602081019050919050565b600067ffffffffffffffff821115612378576123776126ac565b5b612381826126db565b9050602081019050919050565b600081519050919050565b600081519050919050565b600082825260208201905092915050565b600082825260208201905092915050565b600081905092915050565b60006123dc826124f6565b91506123e7836124f6565b9250827fffffffffffffffffffffffffffffffffffffffffffffffffffffffffffffffff0382111561241c5761241b61261f565b5b828201905092915050565b6000612432826124f6565b915061243d836124f6565b92508261244d5761244c61264e565b5b828204905092915050565b6000612463826124f6565b915061246e836124f6565b9250828210156124815761248061261f565b5b828203905092915050565b6000612497826124d6565b9050919050565b60008115159050919050565b60007fffffffff0000000000000000000000000000000000000000000000000000000082169050919050565b600073ffffffffffffffffffffffffffffffffffffffff82169050919050565b6000819050919050565b82818337600083830152505050565b60005b8381101561252d578082015181840152602081019050612512565b8381111561253c576000848401525b50505050565b6000600282049050600182168061255a57607f821691505b6020821081141561256e5761256d61267d565b5b50919050565b61257d826126db565b810181811067ffffffffffffffff8211171561259c5761259b6126ac565b5b80604052505050565b60006125b0826124f6565b91507fffffffffffffffffffffffffffffffffffffffffffffffffffffffffffffffff8214156125e3576125e261261f565b5b600182019050919050565b60006125f9826124f6565b9150612604836124f6565b9250826126145761261361264e565b5b828206905092915050565b7f4e487b7100000000000000000000000000000000000000000000000000000000600052601160045260246000fd5b7f4e487b7100000000000000000000000000000000000000000000000000000000600052601260045260246000fd5b7f4e487b7100000000000000000000000000000000000000000000000000000000600052602260045260246000fd5b7f4e487b7100000000000000000000000000000000000000000000000000000000600052604160045260246000fd5b6000601f19601f8301169050919050565b7f4552433732313a207472616e7366657220746f206e6f6e20455243373231526560008201527f63656976657220696d706c656d656e7465720000000000000000000000000000602082015250565b7f4552433732313a207472616e736665722066726f6d20696e636f72726563742060008201527f6f776e6572000000000000000000000000000000000000000000000000000000602082015250565b7f4552433732313a20746f6b656e20616c7265616479206d696e74656400000000600082015250565b7f4552433732313a207472616e7366657220746f20746865207a65726f2061646460008201527f7265737300000000000000000000000000000000000000000000000000000000602082015250565b7f4552433732313a20617070726f766520746f2063616c6c657200000000000000600082015250565b7f4552433732313a206f70657261746f7220717565727920666f72206e6f6e657860008201527f697374656e7420746f6b656e0000000000000000000000000000000000000000602082015250565b7f4552433732313a20617070726f76652063616c6c6572206973206e6f74206f7760008201527f6e6572206e6f7220617070726f76656420666f7220616c6c0000000000000000602082015250565b7f4552433732313a2062616c616e636520717565727920666f7220746865207a6560008201527f726f206164647265737300000000000000000000000000000000000000000000602082015250565b7f4552433732313a206f776e657220717565727920666f72206e6f6e657869737460008201527f656e7420746f6b656e0000000000000000000000000000000000000000000000602082015250565b7f45524337323155524953746f726167653a2055524920736574206f66206e6f6e60008201527f6578697374656e7420746f6b656e000000000000000000000000000000000000602082015250565b7f4552433732313a206d696e7420746f20746865207a65726f2061646472657373600082015250565b7f45524337323155524953746f726167653a2055524920717565727920666f722060008201527f6e6f6e6578697374656e7420746f6b656e000000000000000000000000000000602082015250565b7f4552433732313a20617070726f76656420717565727920666f72206e6f6e657860008201527f697374656e7420746f6b656e0000000000000000000000000000000000000000602082015250565b7f4552433732314d657461646174613a2055524920717565727920666f72206e6f60008201527f6e6578697374656e7420746f6b656e0000000000000000000000000000000000602082015250565b7f4552433732313a20617070726f76616c20746f2063757272656e74206f776e6560008201527f7200000000000000000000000000000000000000000000000000000000000000602082015250565b7f4552433732313a207472616e736665722063616c6c6572206973206e6f74206f60008201527f776e6572206e6f7220617070726f766564000000000000000000000000000000602082015250565b612b738161248c565b8114612b7e57600080fd5b50565b612b8a8161249e565b8114612b9557600080fd5b50565b612ba1816124aa565b8114612bac57600080fd5b50565b612bb8816124f6565b8114612bc357600080fd5b5056fea2646970667358221220652a4055e9fbd41c7e1cee13c24ccae3644e170276ff36e3756380cfc50b54f164736f6c63430008040033",
  "linkReferences": {},
  "deployedLinkReferences": {}
}