{
  "_format": "hh-sol-artifact-1",
  "contractName": "MyNFT",
  "sourceName": "contracts/CreatNFT.sol",
  "abi": [
    {
      "inputs": [
        {
          "internalType": "address",
          "name": "marketplace",
          "type": "address"
        }
      ],
      "stateMutability": "nonpayable",
      "type": "constructor"
    },
    {
      "anonymous": false,
      "inputs": [
        {
          "indexed": true,
          "internalType": "address",
          "name": "owner",
          "type": "address"
        },
        {
          "indexed": true,
          "internalType": "address",
          "name": "approved",
          "type": "address"
        },
        {
          "indexed": true,
          "internalType": "uint256",
          "name": "tokenId",
          "type": "uint256"
        }
      ],
      "name": "Approval",
      "type": "event"
    },
    {
      "anonymous": false,
      "inputs": [
        {
          "indexed": true,
          "internalType": "address",
          "name": "owner",
          "type": "address"
        },
        {
          "indexed": true,
          "internalType": "address",
          "name": "operator",
          "type": "address"
        },
        {
          "indexed": false,
          "internalType": "bool",
          "name": "approved",
          "type": "bool"
        }
      ],
      "name": "ApprovalForAll",
      "type": "event"
    },
    {
      "anonymous": false,
      "inputs": [
        {
          "indexed": true,
          "internalType": "address",
          "name": "from",
          "type": "address"
        },
        {
          "indexed": true,
          "internalType": "address",
          "name": "to",
          "type": "address"
        },
        {
          "indexed": true,
          "internalType": "uint256",
          "name": "tokenId",
          "type": "uint256"
        }
      ],
      "name": "Transfer",
      "type": "event"
    },
    {
      "inputs": [
        {
          "internalType": "address",
          "name": "to",
          "type": "address"
        },
        {
          "internalType": "uint256",
          "name": "tokenId",
          "type": "uint256"
        }
      ],
      "name": "approve",
      "outputs": [],
      "stateMutability": "nonpayable",
      "type": "function"
    },
    {
      "inputs": [],
      "name": "auctionmarketplaceContractAddress",
      "outputs": [
        {
          "internalType": "address",
          "name": "",
          "type": "address"
        }
      ],
      "stateMutability": "view",
      "type": "function"
    },
    {
      "inputs": [
        {
          "internalType": "address",
          "name": "owner",
          "type": "address"
        }
      ],
      "name": "balanceOf",
      "outputs": [
        {
          "internalType": "uint256",
          "name": "",
          "type": "uint256"
        }
      ],
      "stateMutability": "view",
      "type": "function"
    },
    {
      "inputs": [
        {
          "internalType": "string",
          "name": "_tokenURI",
          "type": "string"
        }
      ],
      "name": "createToken",
      "outputs": [
        {
          "internalType": "uint256",
          "name": "_tokenId",
          "type": "uint256"
        }
      ],
      "stateMutability": "nonpayable",
      "type": "function"
    },
    {
      "inputs": [],
      "name": "fetchTokenUri",
      "outputs": [
        {
          "internalType": "string",
          "name": "_tokenUri",
          "type": "string"
        }
      ],
      "stateMutability": "view",
      "type": "function"
    },
    {
      "inputs": [
        {
          "internalType": "uint256",
          "name": "tokenId",
          "type": "uint256"
        }
      ],
      "name": "getApproved",
      "outputs": [
        {
          "internalType": "address",
          "name": "",
          "type": "address"
        }
      ],
      "stateMutability": "view",
      "type": "function"
    },
    {
      "inputs": [
        {
          "internalType": "address",
          "name": "owner",
          "type": "address"
        },
        {
          "internalType": "address",
          "name": "operator",
          "type": "address"
        }
      ],
      "name": "isApprovedForAll",
      "outputs": [
        {
          "internalType": "bool",
          "name": "",
          "type": "bool"
        }
      ],
      "stateMutability": "view",
      "type": "function"
    },
    {
      "inputs": [],
      "name": "name",
      "outputs": [
        {
          "internalType": "string",
          "name": "",
          "type": "string"
        }
      ],
      "stateMutability": "view",
      "type": "function"
    },
    {
      "inputs": [
        {
          "internalType": "uint256",
          "name": "tokenId",
          "type": "uint256"
        }
      ],
      "name": "ownerOf",
      "outputs": [
        {
          "internalType": "address",
          "name": "",
          "type": "address"
        }
      ],
      "stateMutability": "view",
      "type": "function"
    },
    {
      "inputs": [
        {
          "internalType": "address",
          "name": "from",
          "type": "address"
        },
        {
          "internalType": "address",
          "name": "to",
          "type": "address"
        },
        {
          "internalType": "uint256",
          "name": "tokenId",
          "type": "uint256"
        }
      ],
      "name": "safeTransferFrom",
      "outputs": [],
      "stateMutability": "nonpayable",
      "type": "function"
    },
    {
      "inputs": [
        {
          "internalType": "address",
          "name": "from",
          "type": "address"
        },
        {
          "internalType": "address",
          "name": "to",
          "type": "address"
        },
        {
          "internalType": "uint256",
          "name": "tokenId",
          "type": "uint256"
        },
        {
          "internalType": "bytes",
          "name": "_data",
          "type": "bytes"
        }
      ],
      "name": "safeTransferFrom",
      "outputs": [],
      "stateMutability": "nonpayable",
      "type": "function"
    },
    {
      "inputs": [
        {
          "internalType": "address",
          "name": "operator",
          "type": "address"
        },
        {
          "internalType": "bool",
          "name": "approved",
          "type": "bool"
        }
      ],
      "name": "setApprovalForAll",
      "outputs": [],
      "stateMutability": "nonpayable",
      "type": "function"
    },
    {
      "inputs": [
        {
          "internalType": "bytes4",
          "name": "interfaceId",
          "type": "bytes4"
        }
      ],
      "name": "supportsInterface",
      "outputs": [
        {
          "internalType": "bool",
          "name": "",
          "type": "bool"
        }
      ],
      "stateMutability": "view",
      "type": "function"
    },
    {
      "inputs": [],
      "name": "symbol",
      "outputs": [
        {
          "internalType": "string",
          "name": "",
          "type": "string"
        }
      ],
      "stateMutability": "view",
      "type": "function"
    },
    {
      "inputs": [
        {
          "internalType": "uint256",
          "name": "tokenId",
          "type": "uint256"
        }
      ],
      "name": "tokenURI",
      "outputs": [
        {
          "internalType": "string",
          "name": "",
          "type": "string"
        }
      ],
      "stateMutability": "view",
      "type": "function"
    },
    {
      "inputs": [
        {
          "internalType": "address",
          "name": "from",
          "type": "address"
        },
        {
          "internalType": "address",
          "name": "to",
          "type": "address"
        },
        {
          "internalType": "uint256",
          "name": "tokenId",
          "type": "uint256"
        }
      ],
      "name": "transferFrom",
      "outputs": [],
      "stateMutability": "nonpayable",
      "type": "function"
    }
  ],
  "bytecode": "0x60806040523480156200001157600080fd5b5060405162002f1938038062002f198339818101604052810190620000379190620001e6565b6040518060400160405280600c81526020017f4d794e46542d546f6b656e7300000000000000000000000000000000000000008152506040518060400160405280600381526020017f554d5400000000000000000000000000000000000000000000000000000000008152508160009080519060200190620000bb9291906200011f565b508060019080519060200190620000d49291906200011f565b50505080600860006101000a81548173ffffffffffffffffffffffffffffffffffffffff021916908373ffffffffffffffffffffffffffffffffffffffff16021790555050620002c5565b8280546200012d9062000246565b90600052602060002090601f0160209004810192826200015157600085556200019d565b82601f106200016c57805160ff19168380011785556200019d565b828001600101855582156200019d579182015b828111156200019c5782518255916020019190600101906200017f565b5b509050620001ac9190620001b0565b5090565b5b80821115620001cb576000816000905550600101620001b1565b5090565b600081519050620001e081620002ab565b92915050565b600060208284031215620001f957600080fd5b60006200020984828501620001cf565b91505092915050565b60006200021f8262000226565b9050919050565b600073ffffffffffffffffffffffffffffffffffffffff82169050919050565b600060028204905060018216806200025f57607f821691505b602082108114156200027657620002756200027c565b5b50919050565b7f4e487b7100000000000000000000000000000000000000000000000000000000600052602260045260246000fd5b620002b68162000212565b8114620002c257600080fd5b50565b612c4480620002d56000396000f3fe608060405234801561001057600080fd5b50600436106101005760003560e01c80636352211e11610097578063b88d4fde11610066578063b88d4fde146102bf578063c87b56dd146102db578063e985e9c51461030b578063eb9477fe1461033b57610100565b80636352211e1461022557806370a082311461025557806395d89b4114610285578063a22cb465146102a357610100565b806323b872dd116100d357806323b872dd1461019f57806342842e0e146101bb578063450fc0b9146101d757806345576f94146101f557610100565b806301ffc9a71461010557806306fdde0314610135578063081812fc14610153578063095ea7b314610183575b600080fd5b61011f600480360381019061011a9190611cb0565b610359565b60405161012c91906120f7565b60405180910390f35b61013d61043b565b60405161014a9190612112565b60405180910390f35b61016d60048036038101906101689190611d43565b6104cd565b60405161017a9190612090565b60405180910390f35b61019d60048036038101906101989190611c74565b610552565b005b6101b960048036038101906101b49190611b6e565b61066a565b005b6101d560048036038101906101d09190611b6e565b6106ca565b005b6101df6106ea565b6040516101ec9190612090565b60405180910390f35b61020f600480360381019061020a9190611d02565b610710565b60405161021c9190612334565b60405180910390f35b61023f600480360381019061023a9190611d43565b61076e565b60405161024c9190612090565b60405180910390f35b61026f600480360381019061026a9190611b09565b610820565b60405161027c9190612334565b60405180910390f35b61028d6108d8565b60405161029a9190612112565b60405180910390f35b6102bd60048036038101906102b89190611c38565b61096a565b005b6102d960048036038101906102d49190611bbd565b610980565b005b6102f560048036038101906102f09190611d43565b6109e2565b6040516103029190612112565b60405180910390f35b61032560048036038101906103209190611b32565b610b34565b60405161033291906120f7565b60405180910390f35b610343610bc8565b6040516103509190612112565b60405180910390f35b60007f80ac58cd000000000000000000000000000000000000000000000000000000007bffffffffffffffffffffffffffffffffffffffffffffffffffffffff1916827bffffffffffffffffffffffffffffffffffffffffffffffffffffffff1916148061042457507f5b5e139f000000000000000000000000000000000000000000000000000000007bffffffffffffffffffffffffffffffffffffffffffffffffffffffff1916827bffffffffffffffffffffffffffffffffffffffffffffffffffffffff1916145b80610434575061043382610be7565b5b9050919050565b60606000805461044a9061258a565b80601f01602080910402602001604051908101604052809291908181526020018280546104769061258a565b80156104c35780601f10610498576101008083540402835291602001916104c3565b820191906000526020600020905b8154815290600101906020018083116104a657829003601f168201915b5050505050905090565b60006104d882610c51565b610517576040517f08c379a000000000000000000000000000000000000000000000000000000000815260040161050e906122b4565b60405180910390fd5b6004600083815260200190815260200160002060009054906101000a900473ffffffffffffffffffffffffffffffffffffffff169050919050565b600061055d8261076e565b90508073ffffffffffffffffffffffffffffffffffffffff168373ffffffffffffffffffffffffffffffffffffffff1614156105ce576040517f08c379a00000000000000000000000000000000000000000000000000000000081526004016105c5906122f4565b60405180910390fd5b8073ffffffffffffffffffffffffffffffffffffffff166105ed610cbd565b73ffffffffffffffffffffffffffffffffffffffff16148061061c575061061b81610616610cbd565b610b34565b5b61065b576040517f08c379a0000000000000000000000000000000000000000000000000000000008152600401610652906121f4565b60405180910390fd5b6106658383610cc5565b505050565b61067b610675610cbd565b82610d7e565b6106ba576040517f08c379a00000000000000000000000000000000000000000000000000000000081526004016106b190612314565b60405180910390fd5b6106c5838383610e5c565b505050565b6106e583838360405180602001604052806000815250610980565b505050565b600860009054906101000a900473ffffffffffffffffffffffffffffffffffffffff1681565b600061071c60076110c3565b61072660076110d9565b905061073233826110e7565b61073c81836112c1565b610769600860009054906101000a900473ffffffffffffffffffffffffffffffffffffffff16600161096a565b919050565b6000806002600084815260200190815260200160002060009054906101000a900473ffffffffffffffffffffffffffffffffffffffff169050600073ffffffffffffffffffffffffffffffffffffffff168173ffffffffffffffffffffffffffffffffffffffff161415610817576040517f08c379a000000000000000000000000000000000000000000000000000000000815260040161080e90612234565b60405180910390fd5b80915050919050565b60008073ffffffffffffffffffffffffffffffffffffffff168273ffffffffffffffffffffffffffffffffffffffff161415610891576040517f08c379a000000000000000000000000000000000000000000000000000000000815260040161088890612214565b60405180910390fd5b600360008373ffffffffffffffffffffffffffffffffffffffff1673ffffffffffffffffffffffffffffffffffffffff168152602001908152602001600020549050919050565b6060600180546108e79061258a565b80601f01602080910402602001604051908101604052809291908181526020018280546109139061258a565b80156109605780601f1061093557610100808354040283529160200191610960565b820191906000526020600020905b81548152906001019060200180831161094357829003601f168201915b5050505050905090565b61097c610975610cbd565b8383611335565b5050565b61099161098b610cbd565b83610d7e565b6109d0576040517f08c379a00000000000000000000000000000000000000000000000000000000081526004016109c790612314565b60405180910390fd5b6109dc848484846114a2565b50505050565b60606109ed82610c51565b610a2c576040517f08c379a0000000000000000000000000000000000000000000000000000000008152600401610a2390612294565b60405180910390fd5b6000600660008481526020019081526020016000208054610a4c9061258a565b80601f0160208091040260200160405190810160405280929190818152602001828054610a789061258a565b8015610ac55780601f10610a9a57610100808354040283529160200191610ac5565b820191906000526020600020905b815481529060010190602001808311610aa857829003601f168201915b505050505090506000610ad66114fe565b9050600081511415610aec578192505050610b2f565b600082511115610b21578082604051602001610b0992919061206c565b60405160208183030381529060405292505050610b2f565b610b2a84611515565b925050505b919050565b6000600560008473ffffffffffffffffffffffffffffffffffffffff1673ffffffffffffffffffffffffffffffffffffffff16815260200190815260200160002060008373ffffffffffffffffffffffffffffffffffffffff1673ffffffffffffffffffffffffffffffffffffffff16815260200190815260200160002060009054906101000a900460ff16905092915050565b60606000610bd660076110d9565b9050610be1816109e2565b91505090565b60007f01ffc9a7000000000000000000000000000000000000000000000000000000007bffffffffffffffffffffffffffffffffffffffffffffffffffffffff1916827bffffffffffffffffffffffffffffffffffffffffffffffffffffffff1916149050919050565b60008073ffffffffffffffffffffffffffffffffffffffff166002600084815260200190815260200160002060009054906101000a900473ffffffffffffffffffffffffffffffffffffffff1673ffffffffffffffffffffffffffffffffffffffff1614159050919050565b600033905090565b816004600083815260200190815260200160002060006101000a81548173ffffffffffffffffffffffffffffffffffffffff021916908373ffffffffffffffffffffffffffffffffffffffff160217905550808273ffffffffffffffffffffffffffffffffffffffff16610d388361076e565b73ffffffffffffffffffffffffffffffffffffffff167f8c5be1e5ebec7d5bd14f71427d1e84f3dd0314c0f7b2291e5b200ac8c7c3b92560405160405180910390a45050565b6000610d8982610c51565b610dc8576040517f08c379a0000000000000000000000000000000000000000000000000000000008152600401610dbf906121d4565b60405180910390fd5b6000610dd38361076e565b90508073ffffffffffffffffffffffffffffffffffffffff168473ffffffffffffffffffffffffffffffffffffffff161480610e4257508373ffffffffffffffffffffffffffffffffffffffff16610e2a846104cd565b73ffffffffffffffffffffffffffffffffffffffff16145b80610e535750610e528185610b34565b5b91505092915050565b8273ffffffffffffffffffffffffffffffffffffffff16610e7c8261076e565b73ffffffffffffffffffffffffffffffffffffffff1614610ed2576040517f08c379a0000000000000000000000000000000000000000000000000000000008152600401610ec990612154565b60405180910390fd5b600073ffffffffffffffffffffffffffffffffffffffff168273ffffffffffffffffffffffffffffffffffffffff161415610f42576040517f08c379a0000000000000000000000000000000000000000000000000000000008152600401610f3990612194565b60405180910390fd5b610f4d8383836115bc565b610f58600082610cc5565b6001600360008573ffffffffffffffffffffffffffffffffffffffff1673ffffffffffffffffffffffffffffffffffffffff1681526020019081526020016000206000828254610fa891906124a0565b925050819055506001600360008473ffffffffffffffffffffffffffffffffffffffff1673ffffffffffffffffffffffffffffffffffffffff1681526020019081526020016000206000828254610fff9190612419565b92505081905550816002600083815260200190815260200160002060006101000a81548173ffffffffffffffffffffffffffffffffffffffff021916908373ffffffffffffffffffffffffffffffffffffffff160217905550808273ffffffffffffffffffffffffffffffffffffffff168473ffffffffffffffffffffffffffffffffffffffff167fddf252ad1be2c89b69c2b068fc378daa952ba7f163c4a11628f55a4df523b3ef60405160405180910390a46110be8383836115c1565b505050565b6001816000016000828254019250508190555050565b600081600001549050919050565b600073ffffffffffffffffffffffffffffffffffffffff168273ffffffffffffffffffffffffffffffffffffffff161415611157576040517f08c379a000000000000000000000000000000000000000000000000000000000815260040161114e90612274565b60405180910390fd5b61116081610c51565b156111a0576040517f08c379a000000000000000000000000000000000000000000000000000000000815260040161119790612174565b60405180910390fd5b6111ac600083836115bc565b6001600360008473ffffffffffffffffffffffffffffffffffffffff1673ffffffffffffffffffffffffffffffffffffffff16815260200190815260200160002060008282546111fc9190612419565b92505081905550816002600083815260200190815260200160002060006101000a81548173ffffffffffffffffffffffffffffffffffffffff021916908373ffffffffffffffffffffffffffffffffffffffff160217905550808273ffffffffffffffffffffffffffffffffffffffff16600073ffffffffffffffffffffffffffffffffffffffff167fddf252ad1be2c89b69c2b068fc378daa952ba7f163c4a11628f55a4df523b3ef60405160405180910390a46112bd600083836115c1565b5050565b6112ca82610c51565b611309576040517f08c379a000000000000000000000000000000000000000000000000000000000815260040161130090612254565b60405180910390fd5b8060066000848152602001908152602001600020908051906020019061133092919061192d565b505050565b8173ffffffffffffffffffffffffffffffffffffffff168373ffffffffffffffffffffffffffffffffffffffff1614156113a4576040517f08c379a000000000000000000000000000000000000000000000000000000000815260040161139b906121b4565b60405180910390fd5b80600560008573ffffffffffffffffffffffffffffffffffffffff1673ffffffffffffffffffffffffffffffffffffffff16815260200190815260200160002060008473ffffffffffffffffffffffffffffffffffffffff1673ffffffffffffffffffffffffffffffffffffffff16815260200190815260200160002060006101000a81548160ff0219169083151502179055508173ffffffffffffffffffffffffffffffffffffffff168373ffffffffffffffffffffffffffffffffffffffff167f17307eab39ab6107e8899845ad3d59bd9653f200f220920489ca2b5937696c318360405161149591906120f7565b60405180910390a3505050565b6114ad848484610e5c565b6114b9848484846115c6565b6114f8576040517f08c379a00000000000000000000000000000000000000000000000000000000081526004016114ef90612134565b60405180910390fd5b50505050565b606060405180602001604052806000815250905090565b606061152082610c51565b61155f576040517f08c379a0000000000000000000000000000000000000000000000000000000008152600401611556906122d4565b60405180910390fd5b60006115696114fe565b9050600081511161158957604051806020016040528060008152506115b4565b806115938461175d565b6040516020016115a492919061206c565b6040516020818303038152906040525b915050919050565b505050565b505050565b60006115e78473ffffffffffffffffffffffffffffffffffffffff1661190a565b15611750578373ffffffffffffffffffffffffffffffffffffffff1663150b7a02611610610cbd565b8786866040518563ffffffff1660e01b815260040161163294939291906120ab565b602060405180830381600087803b15801561164c57600080fd5b505af192505050801561167d57506040513d601f19601f8201168201806040525081019061167a9190611cd9565b60015b611700573d80600081146116ad576040519150601f19603f3d011682016040523d82523d6000602084013e6116b2565b606091505b506000815114156116f8576040517f08c379a00000000000000000000000000000000000000000000000000000000081526004016116ef90612134565b60405180910390fd5b805181602001fd5b63150b7a0260e01b7bffffffffffffffffffffffffffffffffffffffffffffffffffffffff1916817bffffffffffffffffffffffffffffffffffffffffffffffffffffffff191614915050611755565b600190505b949350505050565b606060008214156117a5576040518060400160405280600181526020017f30000000000000000000000000000000000000000000000000000000000000008152509050611905565b600082905060005b600082146117d75780806117c0906125ed565b915050600a826117d0919061246f565b91506117ad565b60008167ffffffffffffffff811115611819577f4e487b7100000000000000000000000000000000000000000000000000000000600052604160045260246000fd5b6040519080825280601f01601f19166020018201604052801561184b5781602001600182028036833780820191505090505b5090505b600085146118fe5760018261186491906124a0565b9150600a856118739190612636565b603061187f9190612419565b60f81b8183815181106118bb577f4e487b7100000000000000000000000000000000000000000000000000000000600052603260045260246000fd5b60200101907effffffffffffffffffffffffffffffffffffffffffffffffffffffffffffff1916908160001a905350600a856118f7919061246f565b945061184f565b8093505050505b919050565b6000808273ffffffffffffffffffffffffffffffffffffffff163b119050919050565b8280546119399061258a565b90600052602060002090601f01602090048101928261195b57600085556119a2565b82601f1061197457805160ff19168380011785556119a2565b828001600101855582156119a2579182015b828111156119a1578251825591602001919060010190611986565b5b5090506119af91906119b3565b5090565b5b808211156119cc5760008160009055506001016119b4565b5090565b60006119e36119de84612374565b61234f565b9050828152602081018484840111156119fb57600080fd5b611a06848285612548565b509392505050565b6000611a21611a1c846123a5565b61234f565b905082815260208101848484011115611a3957600080fd5b611a44848285612548565b509392505050565b600081359050611a5b81612bb2565b92915050565b600081359050611a7081612bc9565b92915050565b600081359050611a8581612be0565b92915050565b600081519050611a9a81612be0565b92915050565b600082601f830112611ab157600080fd5b8135611ac18482602086016119d0565b91505092915050565b600082601f830112611adb57600080fd5b8135611aeb848260208601611a0e565b91505092915050565b600081359050611b0381612bf7565b92915050565b600060208284031215611b1b57600080fd5b6000611b2984828501611a4c565b91505092915050565b60008060408385031215611b4557600080fd5b6000611b5385828601611a4c565b9250506020611b6485828601611a4c565b9150509250929050565b600080600060608486031215611b8357600080fd5b6000611b9186828701611a4c565b9350506020611ba286828701611a4c565b9250506040611bb386828701611af4565b9150509250925092565b60008060008060808587031215611bd357600080fd5b6000611be187828801611a4c565b9450506020611bf287828801611a4c565b9350506040611c0387828801611af4565b925050606085013567ffffffffffffffff811115611c2057600080fd5b611c2c87828801611aa0565b91505092959194509250565b60008060408385031215611c4b57600080fd5b6000611c5985828601611a4c565b9250506020611c6a85828601611a61565b9150509250929050565b60008060408385031215611c8757600080fd5b6000611c9585828601611a4c565b9250506020611ca685828601611af4565b9150509250929050565b600060208284031215611cc257600080fd5b6000611cd084828501611a76565b91505092915050565b600060208284031215611ceb57600080fd5b6000611cf984828501611a8b565b91505092915050565b600060208284031215611d1457600080fd5b600082013567ffffffffffffffff811115611d2e57600080fd5b611d3a84828501611aca565b91505092915050565b600060208284031215611d5557600080fd5b6000611d6384828501611af4565b91505092915050565b611d75816124d4565b82525050565b611d84816124e6565b82525050565b6000611d95826123d6565b611d9f81856123ec565b9350611daf818560208601612557565b611db881612723565b840191505092915050565b6000611dce826123e1565b611dd881856123fd565b9350611de8818560208601612557565b611df181612723565b840191505092915050565b6000611e07826123e1565b611e11818561240e565b9350611e21818560208601612557565b80840191505092915050565b6000611e3a6032836123fd565b9150611e4582612734565b604082019050919050565b6000611e5d6025836123fd565b9150611e6882612783565b604082019050919050565b6000611e80601c836123fd565b9150611e8b826127d2565b602082019050919050565b6000611ea36024836123fd565b9150611eae826127fb565b604082019050919050565b6000611ec66019836123fd565b9150611ed18261284a565b602082019050919050565b6000611ee9602c836123fd565b9150611ef482612873565b604082019050919050565b6000611f0c6038836123fd565b9150611f17826128c2565b604082019050919050565b6000611f2f602a836123fd565b9150611f3a82612911565b604082019050919050565b6000611f526029836123fd565b9150611f5d82612960565b604082019050919050565b6000611f75602e836123fd565b9150611f80826129af565b604082019050919050565b6000611f986020836123fd565b9150611fa3826129fe565b602082019050919050565b6000611fbb6031836123fd565b9150611fc682612a27565b604082019050919050565b6000611fde602c836123fd565b9150611fe982612a76565b604082019050919050565b6000612001602f836123fd565b915061200c82612ac5565b604082019050919050565b60006120246021836123fd565b915061202f82612b14565b604082019050919050565b60006120476031836123fd565b915061205282612b63565b604082019050919050565b6120668161253e565b82525050565b60006120788285611dfc565b91506120848284611dfc565b91508190509392505050565b60006020820190506120a56000830184611d6c565b92915050565b60006080820190506120c06000830187611d6c565b6120cd6020830186611d6c565b6120da604083018561205d565b81810360608301526120ec8184611d8a565b905095945050505050565b600060208201905061210c6000830184611d7b565b92915050565b6000602082019050818103600083015261212c8184611dc3565b905092915050565b6000602082019050818103600083015261214d81611e2d565b9050919050565b6000602082019050818103600083015261216d81611e50565b9050919050565b6000602082019050818103600083015261218d81611e73565b9050919050565b600060208201905081810360008301526121ad81611e96565b9050919050565b600060208201905081810360008301526121cd81611eb9565b9050919050565b600060208201905081810360008301526121ed81611edc565b9050919050565b6000602082019050818103600083015261220d81611eff565b9050919050565b6000602082019050818103600083015261222d81611f22565b9050919050565b6000602082019050818103600083015261224d81611f45565b9050919050565b6000602082019050818103600083015261226d81611f68565b9050919050565b6000602082019050818103600083015261228d81611f8b565b9050919050565b600060208201905081810360008301526122ad81611fae565b9050919050565b600060208201905081810360008301526122cd81611fd1565b9050919050565b600060208201905081810360008301526122ed81611ff4565b9050919050565b6000602082019050818103600083015261230d81612017565b9050919050565b6000602082019050818103600083015261232d8161203a565b9050919050565b6000602082019050612349600083018461205d565b92915050565b600061235961236a565b905061236582826125bc565b919050565b6000604051905090565b600067ffffffffffffffff82111561238f5761238e6126f4565b5b61239882612723565b9050602081019050919050565b600067ffffffffffffffff8211156123c0576123bf6126f4565b5b6123c982612723565b9050602081019050919050565b600081519050919050565b600081519050919050565b600082825260208201905092915050565b600082825260208201905092915050565b600081905092915050565b60006124248261253e565b915061242f8361253e565b9250827fffffffffffffffffffffffffffffffffffffffffffffffffffffffffffffffff0382111561246457612463612667565b5b828201905092915050565b600061247a8261253e565b91506124858361253e565b92508261249557612494612696565b5b828204905092915050565b60006124ab8261253e565b91506124b68361253e565b9250828210156124c9576124c8612667565b5b828203905092915050565b60006124df8261251e565b9050919050565b60008115159050919050565b60007fffffffff0000000000000000000000000000000000000000000000000000000082169050919050565b600073ffffffffffffffffffffffffffffffffffffffff82169050919050565b6000819050919050565b82818337600083830152505050565b60005b8381101561257557808201518184015260208101905061255a565b83811115612584576000848401525b50505050565b600060028204905060018216806125a257607f821691505b602082108114156125b6576125b56126c5565b5b50919050565b6125c582612723565b810181811067ffffffffffffffff821117156125e4576125e36126f4565b5b80604052505050565b60006125f88261253e565b91507fffffffffffffffffffffffffffffffffffffffffffffffffffffffffffffffff82141561262b5761262a612667565b5b600182019050919050565b60006126418261253e565b915061264c8361253e565b92508261265c5761265b612696565b5b828206905092915050565b7f4e487b7100000000000000000000000000000000000000000000000000000000600052601160045260246000fd5b7f4e487b7100000000000000000000000000000000000000000000000000000000600052601260045260246000fd5b7f4e487b7100000000000000000000000000000000000000000000000000000000600052602260045260246000fd5b7f4e487b7100000000000000000000000000000000000000000000000000000000600052604160045260246000fd5b6000601f19601f8301169050919050565b7f4552433732313a207472616e7366657220746f206e6f6e20455243373231526560008201527f63656976657220696d706c656d656e7465720000000000000000000000000000602082015250565b7f4552433732313a207472616e736665722066726f6d20696e636f72726563742060008201527f6f776e6572000000000000000000000000000000000000000000000000000000602082015250565b7f4552433732313a20746f6b656e20616c7265616479206d696e74656400000000600082015250565b7f4552433732313a207472616e7366657220746f20746865207a65726f2061646460008201527f7265737300000000000000000000000000000000000000000000000000000000602082015250565b7f4552433732313a20617070726f766520746f2063616c6c657200000000000000600082015250565b7f4552433732313a206f70657261746f7220717565727920666f72206e6f6e657860008201527f697374656e7420746f6b656e0000000000000000000000000000000000000000602082015250565b7f4552433732313a20617070726f76652063616c6c6572206973206e6f74206f7760008201527f6e6572206e6f7220617070726f76656420666f7220616c6c0000000000000000602082015250565b7f4552433732313a2062616c616e636520717565727920666f7220746865207a6560008201527f726f206164647265737300000000000000000000000000000000000000000000602082015250565b7f4552433732313a206f776e657220717565727920666f72206e6f6e657869737460008201527f656e7420746f6b656e0000000000000000000000000000000000000000000000602082015250565b7f45524337323155524953746f726167653a2055524920736574206f66206e6f6e60008201527f6578697374656e7420746f6b656e000000000000000000000000000000000000602082015250565b7f4552433732313a206d696e7420746f20746865207a65726f2061646472657373600082015250565b7f45524337323155524953746f726167653a2055524920717565727920666f722060008201527f6e6f6e6578697374656e7420746f6b656e000000000000000000000000000000602082015250565b7f4552433732313a20617070726f76656420717565727920666f72206e6f6e657860008201527f697374656e7420746f6b656e0000000000000000000000000000000000000000602082015250565b7f4552433732314d657461646174613a2055524920717565727920666f72206e6f60008201527f6e6578697374656e7420746f6b656e0000000000000000000000000000000000602082015250565b7f4552433732313a20617070726f76616c20746f2063757272656e74206f776e6560008201527f7200000000000000000000000000000000000000000000000000000000000000602082015250565b7f4552433732313a207472616e736665722063616c6c6572206973206e6f74206f60008201527f776e6572206e6f7220617070726f766564000000000000000000000000000000602082015250565b612bbb816124d4565b8114612bc657600080fd5b50565b612bd2816124e6565b8114612bdd57600080fd5b50565b612be9816124f2565b8114612bf457600080fd5b50565b612c008161253e565b8114612c0b57600080fd5b5056fea264697066735822122002c54aa09f3e7f2c6a5560e48262821fd3ac4ae2d11f8efffa5bf4311e42153564736f6c63430008040033",
  "linkReferences": {},
  "deployedLinkReferences": {}
}